{
  "_format": "hh-sol-artifact-1",
  "contractName": "EscrowVault",
  "sourceName": "contracts/EscrowVault.sol",
  "abi": [
    {
      "inputs": [
        {
          "internalType": "address",
          "name": "_usdc",
          "type": "address"
        },
        {
          "internalType": "address",
          "name": "_warpPortal",
          "type": "address"
        },
        {
          "internalType": "address",
          "name": "_payoutAddr",
          "type": "address"
        },
        {
          "internalType": "bytes3",
          "name": "_sourceChain",
          "type": "bytes3"
        }
      ],
      "stateMutability": "nonpayable",
      "type": "constructor"
    },
    {
      "anonymous": false,
      "inputs": [
        {
          "indexed": true,
          "internalType": "address",
          "name": "previousOwner",
          "type": "address"
        },
        {
          "indexed": true,
          "internalType": "address",
          "name": "newOwner",
          "type": "address"
        }
      ],
      "name": "OwnershipTransferred",
      "type": "event"
    },
    {
      "anonymous": false,
      "inputs": [
        {
          "indexed": false,
          "internalType": "address",
          "name": "account",
          "type": "address"
        }
      ],
      "name": "Paused",
      "type": "event"
    },
    {
      "anonymous": false,
      "inputs": [
        {
          "indexed": true,
          "internalType": "bytes32",
          "name": "paymentId",
          "type": "bytes32"
        },
        {
          "indexed": true,
          "internalType": "address",
          "name": "user",
          "type": "address"
        },
        {
          "indexed": false,
          "internalType": "uint256",
          "name": "amountUSDC",
          "type": "uint256"
        },
        {
          "indexed": false,
          "internalType": "uint256",
          "name": "tollPaid",
          "type": "uint256"
        }
      ],
      "name": "PaymentDeposited",
      "type": "event"
    },
    {
      "anonymous": false,
      "inputs": [
        {
          "indexed": true,
          "internalType": "bytes32",
          "name": "paymentId",
          "type": "bytes32"
        },
        {
          "indexed": false,
          "internalType": "uint256",
          "name": "amountUSDC",
          "type": "uint256"
        },
        {
          "indexed": true,
          "internalType": "address",
          "name": "recipient",
          "type": "address"
        }
      ],
      "name": "PayoutCompleted",
      "type": "event"
    },
    {
      "anonymous": false,
      "inputs": [
        {
          "indexed": true,
          "internalType": "bytes32",
          "name": "paymentId",
          "type": "bytes32"
        },
        {
          "indexed": true,
          "internalType": "address",
          "name": "recipient",
          "type": "address"
        }
      ],
      "name": "PayoutSetByAdmin",
      "type": "event"
    },
    {
      "anonymous": false,
      "inputs": [
        {
          "indexed": false,
          "internalType": "address",
          "name": "account",
          "type": "address"
        }
      ],
      "name": "Unpaused",
      "type": "event"
    },
    {
      "inputs": [],
      "name": "depositCount",
      "outputs": [
        {
          "internalType": "uint256",
          "name": "",
          "type": "uint256"
        }
      ],
      "stateMutability": "view",
      "type": "function"
    },
    {
      "inputs": [
        {
          "internalType": "bytes32",
          "name": "nftId",
          "type": "bytes32"
        },
        {
          "internalType": "bytes32",
          "name": "paymentId",
          "type": "bytes32"
        },
        {
          "internalType": "bytes32",
          "name": "bridgingPuzzle",
          "type": "bytes32"
        },
        {
          "internalType": "bytes32",
          "name": "trustedPuzzle",
          "type": "bytes32"
        },
        {
          "internalType": "bytes32",
          "name": "destinationPuzzle",
          "type": "bytes32"
        },
        {
          "internalType": "uint256",
          "name": "amountUSDC",
          "type": "uint256"
        },
        {
          "internalType": "uint256",
          "name": "dacCount",
          "type": "uint256"
        }
      ],
      "name": "depositPayment",
      "outputs": [],
      "stateMutability": "payable",
      "type": "function"
    },
    {
      "inputs": [
        {
          "internalType": "bytes32",
          "name": "",
          "type": "bytes32"
        }
      ],
      "name": "deposits",
      "outputs": [
        {
          "internalType": "address",
          "name": "user",
          "type": "address"
        },
        {
          "internalType": "bytes32",
          "name": "nftId",
          "type": "bytes32"
        },
        {
          "internalType": "bytes32",
          "name": "paymentId",
          "type": "bytes32"
        },
        {
          "internalType": "bytes32",
          "name": "bridgingPuzzle",
          "type": "bytes32"
        },
        {
          "internalType": "bytes32",
          "name": "trustedPuzzle",
          "type": "bytes32"
        },
        {
          "internalType": "bytes32",
          "name": "destinationPuzzle",
          "type": "bytes32"
        },
        {
          "internalType": "uint256",
          "name": "amountUSDC",
          "type": "uint256"
        },
        {
          "internalType": "uint256",
          "name": "dacCount",
          "type": "uint256"
        },
        {
          "internalType": "bool",
          "name": "completed",
          "type": "bool"
        }
      ],
      "stateMutability": "view",
      "type": "function"
    },
    {
      "inputs": [],
      "name": "owner",
      "outputs": [
        {
          "internalType": "address",
          "name": "",
          "type": "address"
        }
      ],
      "stateMutability": "view",
      "type": "function"
    },
    {
      "inputs": [],
      "name": "pause",
      "outputs": [],
      "stateMutability": "nonpayable",
      "type": "function"
    },
    {
      "inputs": [],
      "name": "paused",
      "outputs": [
        {
          "internalType": "bool",
          "name": "",
          "type": "bool"
        }
      ],
      "stateMutability": "view",
      "type": "function"
    },
    {
      "inputs": [],
      "name": "payoutAddress",
      "outputs": [
        {
          "internalType": "address",
          "name": "",
          "type": "address"
        }
      ],
      "stateMutability": "view",
      "type": "function"
    },
    {
      "inputs": [
        {
          "internalType": "bytes32",
          "name": "_nonce",
          "type": "bytes32"
        },
        {
          "internalType": "bytes3",
          "name": "_source_chain",
          "type": "bytes3"
        },
        {
          "internalType": "bytes32",
          "name": "_source",
          "type": "bytes32"
        },
        {
          "internalType": "bytes32[]",
          "name": "_contents",
          "type": "bytes32[]"
        }
      ],
      "name": "receiveMessage",
      "outputs": [],
      "stateMutability": "nonpayable",
      "type": "function"
    },
    {
      "inputs": [],
      "name": "renounceOwnership",
      "outputs": [],
      "stateMutability": "nonpayable",
      "type": "function"
    },
    {
      "inputs": [
        {
          "internalType": "bytes32",
          "name": "paymentId",
          "type": "bytes32"
        },
        {
          "internalType": "address",
          "name": "recipient",
          "type": "address"
        }
      ],
      "name": "setPayout",
      "outputs": [],
      "stateMutability": "nonpayable",
      "type": "function"
    },
    {
      "inputs": [
        {
          "internalType": "bytes3",
          "name": "_sourceChain",
          "type": "bytes3"
        }
      ],
      "name": "setSourceChain",
      "outputs": [],
      "stateMutability": "nonpayable",
      "type": "function"
    },
    {
      "inputs": [],
      "name": "sourceChain",
      "outputs": [
        {
          "internalType": "bytes3",
          "name": "",
          "type": "bytes3"
        }
      ],
      "stateMutability": "view",
      "type": "function"
    },
    {
      "inputs": [
        {
          "internalType": "address",
          "name": "newOwner",
          "type": "address"
        }
      ],
      "name": "transferOwnership",
      "outputs": [],
      "stateMutability": "nonpayable",
      "type": "function"
    },
    {
      "inputs": [],
      "name": "unpause",
      "outputs": [],
      "stateMutability": "nonpayable",
      "type": "function"
    },
    {
      "inputs": [],
      "name": "usdcAddress",
      "outputs": [
        {
          "internalType": "address",
          "name": "",
          "type": "address"
        }
      ],
      "stateMutability": "view",
      "type": "function"
    },
    {
      "inputs": [],
      "name": "warpPortal",
      "outputs": [
        {
          "internalType": "address",
          "name": "",
          "type": "address"
        }
      ],
      "stateMutability": "view",
      "type": "function"
    }
  ],
  "bytecode": "0x60806040523480156200001157600080fd5b50604051620030563803806200305683398181016040528101906200003791906200044b565b620000576200004b620002b860201b60201c565b620002c060201b60201c565b60008060146101000a81548160ff02191690831515021790555060018081905550600073ffffffffffffffffffffffffffffffffffffffff168473ffffffffffffffffffffffffffffffffffffffff1603620000ea576040517f08c379a0000000000000000000000000000000000000000000000000000000008152600401620000e1906200051e565b60405180910390fd5b600073ffffffffffffffffffffffffffffffffffffffff168373ffffffffffffffffffffffffffffffffffffffff16036200015c576040517f08c379a0000000000000000000000000000000000000000000000000000000008152600401620001539062000590565b60405180910390fd5b600073ffffffffffffffffffffffffffffffffffffffff168273ffffffffffffffffffffffffffffffffffffffff1603620001ce576040517f08c379a0000000000000000000000000000000000000000000000000000000008152600401620001c59062000602565b60405180910390fd5b83600260006101000a81548173ffffffffffffffffffffffffffffffffffffffff021916908373ffffffffffffffffffffffffffffffffffffffff16021790555082600360006101000a81548173ffffffffffffffffffffffffffffffffffffffff021916908373ffffffffffffffffffffffffffffffffffffffff16021790555081600460006101000a81548173ffffffffffffffffffffffffffffffffffffffff021916908373ffffffffffffffffffffffffffffffffffffffff16021790555080600460146101000a81548162ffffff021916908360e81c02179055505050505062000624565b600033905090565b60008060009054906101000a900473ffffffffffffffffffffffffffffffffffffffff169050816000806101000a81548173ffffffffffffffffffffffffffffffffffffffff021916908373ffffffffffffffffffffffffffffffffffffffff1602179055508173ffffffffffffffffffffffffffffffffffffffff168173ffffffffffffffffffffffffffffffffffffffff167f8be0079c531659141344cd1fd0a4f28419497f9722a3daafe3b4186f6b6457e060405160405180910390a35050565b600080fd5b600073ffffffffffffffffffffffffffffffffffffffff82169050919050565b6000620003b68262000389565b9050919050565b620003c881620003a9565b8114620003d457600080fd5b50565b600081519050620003e881620003bd565b92915050565b60007fffffff000000000000000000000000000000000000000000000000000000000082169050919050565b6200042581620003ee565b81146200043157600080fd5b50565b60008151905062000445816200041a565b92915050565b6000806000806080858703121562000468576200046762000384565b5b60006200047887828801620003d7565b94505060206200048b87828801620003d7565b93505060406200049e87828801620003d7565b9250506060620004b18782880162000434565b91505092959194509250565b600082825260208201905092915050565b7f555344433d300000000000000000000000000000000000000000000000000000600082015250565b600062000506600683620004bd565b91506200051382620004ce565b602082019050919050565b600060208201905081810360008301526200053981620004f7565b9050919050565b7f77617270506f7274616c3d300000000000000000000000000000000000000000600082015250565b600062000578600c83620004bd565b9150620005858262000540565b602082019050919050565b60006020820190508181036000830152620005ab8162000569565b9050919050565b7f7061796f75743d30000000000000000000000000000000000000000000000000600082015250565b6000620005ea600883620004bd565b9150620005f782620005b2565b602082019050919050565b600060208201905081810360008301526200061d81620005db565b9050919050565b612a2280620006346000396000f3fe6080604052600436106100f35760003560e01c80635c975abb1161008a5780638da5cb5b116100595780638da5cb5b146102d4578063bfb26e04146102ff578063ead9fcb31461031b578063f2fde38b14610346576100f3565b80635c975abb146102525780636f71a6931461027d578063715018a6146102a65780638456cb59146102bd576100f3565b80633f4ba83a116100c65780633f4ba83a146101be57806341d02437146101d5578063574632fc146101fe5780635b8d02d714610227576100f3565b806302d45457146100f85780631c6ffa46146101235780632dfdf0b51461014e5780633d4dff7b14610179575b600080fd5b34801561010457600080fd5b5061010d61036f565b60405161011a9190611821565b60405180910390f35b34801561012f57600080fd5b50610138610395565b6040516101459190611877565b60405180910390f35b34801561015a57600080fd5b506101636103a8565b60405161017091906118ab565b60405180910390f35b34801561018557600080fd5b506101a0600480360381019061019b9190611906565b6103ae565b6040516101b59998979695949392919061195d565b60405180910390f35b3480156101ca57600080fd5b506101d3610429565b005b3480156101e157600080fd5b506101fc60048036038101906101f79190611a16565b61043b565b005b34801561020a57600080fd5b5061022560048036038101906102209190611aa8565b610463565b005b34801561023357600080fd5b5061023c610a3b565b6040516102499190611821565b60405180910390f35b34801561025e57600080fd5b50610267610a61565b6040516102749190611b30565b60405180910390f35b34801561028957600080fd5b506102a4600480360381019061029f9190611b77565b610a77565b005b3480156102b257600080fd5b506102bb610d9f565b005b3480156102c957600080fd5b506102d2610db3565b005b3480156102e057600080fd5b506102e9610dc5565b6040516102f69190611821565b60405180910390f35b61031960048036038101906103149190611be3565b610dee565b005b34801561032757600080fd5b5061033061143d565b60405161033d9190611821565b60405180910390f35b34801561035257600080fd5b5061036d60048036038101906103689190611c85565b611463565b005b600260009054906101000a900473ffffffffffffffffffffffffffffffffffffffff1681565b600460149054906101000a900460e81b81565b60075481565b60066020528060005260406000206000915090508060000160009054906101000a900473ffffffffffffffffffffffffffffffffffffffff16908060010154908060020154908060030154908060040154908060050154908060060154908060070154908060080160009054906101000a900460ff16905089565b6104316114e6565b610439611564565b565b6104436114e6565b80600460146101000a81548162ffffff021916908360e81c021790555050565b61046b6115c6565b610473611610565b600360009054906101000a900473ffffffffffffffffffffffffffffffffffffffff1673ffffffffffffffffffffffffffffffffffffffff163373ffffffffffffffffffffffffffffffffffffffff1614610503576040517f08c379a00000000000000000000000000000000000000000000000000000000081526004016104fa90611d0f565b60405180910390fd5b600460149054906101000a900460e81b7cffffffffffffffffffffffffffffffffffffffffffffffffffffffffff1916847cffffffffffffffffffffffffffffffffffffffffffffffffffffffffff191614610594576040517f08c379a000000000000000000000000000000000000000000000000000000000815260040161058b90611d7b565b60405180910390fd5b600084866040516020016105a9929190611ddd565b6040516020818303038152906040528051906020012090506005600082815260200190815260200160002060009054906101000a900460ff1615610622576040517f08c379a000000000000000000000000000000000000000000000000000000000815260040161061990611e55565b60405180910390fd5b60016005600083815260200190815260200160002060006101000a81548160ff0219169083151502179055506003838390501015610695576040517f08c379a000000000000000000000000000000000000000000000000000000000815260040161068c90611ec1565b60405180910390fd5b6000838360008181106106ab576106aa611ee1565b5b9050602002013590506000848460018181106106ca576106c9611ee1565b5b9050602002013560001c90506000858560028181106106ec576106eb611ee1565b5b9050602002013560001c905060006006600085815260200190815260200160002090506000801b816002015403610758576040517f08c379a000000000000000000000000000000000000000000000000000000000815260040161074f90611f5c565b60405180910390fd5b8060080160009054906101000a900460ff16156107aa576040517f08c379a00000000000000000000000000000000000000000000000000000000081526004016107a190611fc8565b60405180910390fd5b806004015488146107f0576040517f08c379a00000000000000000000000000000000000000000000000000000000081526004016107e790612034565b60405180910390fd5b8060060154831115610837576040517f08c379a000000000000000000000000000000000000000000000000000000000815260040161082e906120a0565b60405180910390fd5b600182111561087b576040517f08c379a00000000000000000000000000000000000000000000000000000000081526004016108729061210c565b60405180910390fd5b60018160080160006101000a81548160ff0219169083151502179055506000600183146108cc578160000160009054906101000a900473ffffffffffffffffffffffffffffffffffffffff166108f0565b600460009054906101000a900473ffffffffffffffffffffffffffffffffffffffff165b90506000600260009054906101000a900473ffffffffffffffffffffffffffffffffffffffff1673ffffffffffffffffffffffffffffffffffffffff1663a9059cbb83876040518363ffffffff1660e01b815260040161095192919061212c565b6020604051808303816000875af1158015610970573d6000803e3d6000fd5b505050506040513d601f19601f820116820180604052508101906109949190612181565b9050806109d6576040517f08c379a00000000000000000000000000000000000000000000000000000000081526004016109cd906121fa565b60405180910390fd5b8173ffffffffffffffffffffffffffffffffffffffff16867fced947a3736f960c9c333b4be6c917fe4ce591af4c3650f07f42a833e8ff549487604051610a1d91906118ab565b60405180910390a350505050505050610a3461165f565b5050505050565b600460009054906101000a900473ffffffffffffffffffffffffffffffffffffffff1681565b60008060149054906101000a900460ff16905090565b610a7f6114e6565b610a876115c6565b610a8f611610565b6000801b8203610ad4576040517f08c379a0000000000000000000000000000000000000000000000000000000008152600401610acb90612266565b60405180910390fd5b600073ffffffffffffffffffffffffffffffffffffffff168173ffffffffffffffffffffffffffffffffffffffff1603610b43576040517f08c379a0000000000000000000000000000000000000000000000000000000008152600401610b3a906122d2565b60405180910390fd5b60006006600084815260200190815260200160002090506000801b816002015403610ba3576040517f08c379a0000000000000000000000000000000000000000000000000000000008152600401610b9a90611f5c565b60405180910390fd5b8060080160009054906101000a900460ff1615610bf5576040517f08c379a0000000000000000000000000000000000000000000000000000000008152600401610bec90611fc8565b60405180910390fd5b60018160080160006101000a81548160ff0219169083151502179055506000600260009054906101000a900473ffffffffffffffffffffffffffffffffffffffff1673ffffffffffffffffffffffffffffffffffffffff1663a9059cbb8484600601546040518363ffffffff1660e01b8152600401610c7592919061212c565b6020604051808303816000875af1158015610c94573d6000803e3d6000fd5b505050506040513d601f19601f82011682018060405250810190610cb89190612181565b905080610cfa576040517f08c379a0000000000000000000000000000000000000000000000000000000008152600401610cf1906121fa565b60405180910390fd5b8273ffffffffffffffffffffffffffffffffffffffff16847f14a15bd518fc2b34036fcbfbc775f9577a57552aba076c87f1480c0a7b95428760405160405180910390a38273ffffffffffffffffffffffffffffffffffffffff16847fced947a3736f960c9c333b4be6c917fe4ce591af4c3650f07f42a833e8ff54948460060154604051610d8991906118ab565b60405180910390a35050610d9b61165f565b5050565b610da76114e6565b610db16000611668565b565b610dbb6114e6565b610dc361172c565b565b60008060009054906101000a900473ffffffffffffffffffffffffffffffffffffffff16905090565b610df66115c6565b610dfe611610565b6000600360009054906101000a900473ffffffffffffffffffffffffffffffffffffffff1673ffffffffffffffffffffffffffffffffffffffff166379c06b8b6040518163ffffffff1660e01b8152600401602060405180830381865afa158015610e6d573d6000803e3d6000fd5b505050506040513d601f19601f82011682018060405250810190610e919190612307565b9050803414610ed5576040517f08c379a0000000000000000000000000000000000000000000000000000000008152600401610ecc90612380565b60405180910390fd5b6000801b8703610f1a576040517f08c379a0000000000000000000000000000000000000000000000000000000008152600401610f1190612266565b60405180910390fd5b6000801b8603610f5f576040517f08c379a0000000000000000000000000000000000000000000000000000000008152600401610f56906123ec565b60405180910390fd5b6000801b8503610fa4576040517f08c379a0000000000000000000000000000000000000000000000000000000008152600401610f9b90612458565b60405180910390fd5b60008311610fe7576040517f08c379a0000000000000000000000000000000000000000000000000000000008152600401610fde906124c4565b60405180910390fd5b6000801b600660008981526020019081526020016000206002015414611042576040517f08c379a000000000000000000000000000000000000000000000000000000000815260040161103990612530565b60405180910390fd5b6000600260009054906101000a900473ffffffffffffffffffffffffffffffffffffffff1673ffffffffffffffffffffffffffffffffffffffff166323b872dd3330876040518463ffffffff1660e01b81526004016110a393929190612550565b6020604051808303816000875af11580156110c2573d6000803e3d6000fd5b505050506040513d601f19601f820116820180604052508101906110e69190612181565b905080611128576040517f08c379a000000000000000000000000000000000000000000000000000000000815260040161111f906125d3565b60405180910390fd5b60016007600082825461113b9190612622565b925050819055506040518061012001604052803373ffffffffffffffffffffffffffffffffffffffff1681526020018a815260200189815260200188815260200187815260200186815260200185815260200184815260200160001515815250600660008a815260200190815260200160002060008201518160000160006101000a81548173ffffffffffffffffffffffffffffffffffffffff021916908373ffffffffffffffffffffffffffffffffffffffff1602179055506020820151816001015560408201518160020155606082015181600301556080820151816004015560a0820151816005015560c0820151816006015560e082015181600701556101008201518160080160006101000a81548160ff0219169083151502179055509050503373ffffffffffffffffffffffffffffffffffffffff16887f468d947e1837d388553920dd0d68168309ca85d0821f171b24e67e8d50c702ed86346040516112a8929190612656565b60405180910390a36000600467ffffffffffffffff8111156112cd576112cc61267f565b5b6040519080825280602002602001820160405280156112fb5781602001602082028036833780820191505090505b509050888160008151811061131357611312611ee1565b5b6020026020010181815250508460001b8160018151811061133757611336611ee1565b5b6020026020010181815250508360001b8160028151811061135b5761135a611ee1565b5b602002602001018181525050858160038151811061137c5761137b611ee1565b5b602002602001018181525050600360009054906101000a900473ffffffffffffffffffffffffffffffffffffffff1673ffffffffffffffffffffffffffffffffffffffff1663b3882f8984600460149054906101000a900460e81b8b856040518563ffffffff1660e01b81526004016113f79392919061276c565b6000604051808303818588803b15801561141057600080fd5b505af1158015611424573d6000803e3d6000fd5b505050505050505061143461165f565b50505050505050565b600360009054906101000a900473ffffffffffffffffffffffffffffffffffffffff1681565b61146b6114e6565b600073ffffffffffffffffffffffffffffffffffffffff168173ffffffffffffffffffffffffffffffffffffffff16036114da576040517f08c379a00000000000000000000000000000000000000000000000000000000081526004016114d19061281c565b60405180910390fd5b6114e381611668565b50565b6114ee61178f565b73ffffffffffffffffffffffffffffffffffffffff1661150c610dc5565b73ffffffffffffffffffffffffffffffffffffffff1614611562576040517f08c379a000000000000000000000000000000000000000000000000000000000815260040161155990612888565b60405180910390fd5b565b61156c611797565b60008060146101000a81548160ff0219169083151502179055507f5db9ee0a495bf2e6ff9c91a7834c1ba4fdd244a5e8aa4e537bd38aeae4b073aa6115af61178f565b6040516115bc9190611821565b60405180910390a1565b6115ce610a61565b1561160e576040517f08c379a0000000000000000000000000000000000000000000000000000000008152600401611605906128f4565b60405180910390fd5b565b600260015403611655576040517f08c379a000000000000000000000000000000000000000000000000000000000815260040161164c90612960565b60405180910390fd5b6002600181905550565b60018081905550565b60008060009054906101000a900473ffffffffffffffffffffffffffffffffffffffff169050816000806101000a81548173ffffffffffffffffffffffffffffffffffffffff021916908373ffffffffffffffffffffffffffffffffffffffff1602179055508173ffffffffffffffffffffffffffffffffffffffff168173ffffffffffffffffffffffffffffffffffffffff167f8be0079c531659141344cd1fd0a4f28419497f9722a3daafe3b4186f6b6457e060405160405180910390a35050565b6117346115c6565b6001600060146101000a81548160ff0219169083151502179055507f62e78cea01bee320cd4e420270b5ea74000d11b0c9f74754ebdbfc544b05a25861177861178f565b6040516117859190611821565b60405180910390a1565b600033905090565b61179f610a61565b6117de576040517f08c379a00000000000000000000000000000000000000000000000000000000081526004016117d5906129cc565b60405180910390fd5b565b600073ffffffffffffffffffffffffffffffffffffffff82169050919050565b600061180b826117e0565b9050919050565b61181b81611800565b82525050565b60006020820190506118366000830184611812565b92915050565b60007fffffff000000000000000000000000000000000000000000000000000000000082169050919050565b6118718161183c565b82525050565b600060208201905061188c6000830184611868565b92915050565b6000819050919050565b6118a581611892565b82525050565b60006020820190506118c0600083018461189c565b92915050565b600080fd5b600080fd5b6000819050919050565b6118e3816118d0565b81146118ee57600080fd5b50565b600081359050611900816118da565b92915050565b60006020828403121561191c5761191b6118c6565b5b600061192a848285016118f1565b91505092915050565b61193c816118d0565b82525050565b60008115159050919050565b61195781611942565b82525050565b600061012082019050611973600083018c611812565b611980602083018b611933565b61198d604083018a611933565b61199a6060830189611933565b6119a76080830188611933565b6119b460a0830187611933565b6119c160c083018661189c565b6119ce60e083018561189c565b6119dc61010083018461194e565b9a9950505050505050505050565b6119f38161183c565b81146119fe57600080fd5b50565b600081359050611a10816119ea565b92915050565b600060208284031215611a2c57611a2b6118c6565b5b6000611a3a84828501611a01565b91505092915050565b600080fd5b600080fd5b600080fd5b60008083601f840112611a6857611a67611a43565b5b8235905067ffffffffffffffff811115611a8557611a84611a48565b5b602083019150836020820283011115611aa157611aa0611a4d565b5b9250929050565b600080600080600060808688031215611ac457611ac36118c6565b5b6000611ad2888289016118f1565b9550506020611ae388828901611a01565b9450506040611af4888289016118f1565b935050606086013567ffffffffffffffff811115611b1557611b146118cb565b5b611b2188828901611a52565b92509250509295509295909350565b6000602082019050611b45600083018461194e565b92915050565b611b5481611800565b8114611b5f57600080fd5b50565b600081359050611b7181611b4b565b92915050565b60008060408385031215611b8e57611b8d6118c6565b5b6000611b9c858286016118f1565b9250506020611bad85828601611b62565b9150509250929050565b611bc081611892565b8114611bcb57600080fd5b50565b600081359050611bdd81611bb7565b92915050565b600080600080600080600060e0888a031215611c0257611c016118c6565b5b6000611c108a828b016118f1565b9750506020611c218a828b016118f1565b9650506040611c328a828b016118f1565b9550506060611c438a828b016118f1565b9450506080611c548a828b016118f1565b93505060a0611c658a828b01611bce565b92505060c0611c768a828b01611bce565b91505092959891949750929550565b600060208284031215611c9b57611c9a6118c6565b5b6000611ca984828501611b62565b91505092915050565b600082825260208201905092915050565b7f4e6f742077617270506f7274616c000000000000000000000000000000000000600082015250565b6000611cf9600e83611cb2565b9150611d0482611cc3565b602082019050919050565b60006020820190508181036000830152611d2881611cec565b9050919050565b7f57726f6e6720736f7572636520636861696e0000000000000000000000000000600082015250565b6000611d65601283611cb2565b9150611d7082611d2f565b602082019050919050565b60006020820190508181036000830152611d9481611d58565b9050919050565b6000819050919050565b611db6611db18261183c565b611d9b565b82525050565b6000819050919050565b611dd7611dd2826118d0565b611dbc565b82525050565b6000611de98285611da5565b600382019150611df98284611dc6565b6020820191508190509392505050565b7f5265706c61792064657465637465640000000000000000000000000000000000600082015250565b6000611e3f600f83611cb2565b9150611e4a82611e09565b602082019050919050565b60006020820190508181036000830152611e6e81611e32565b9050919050565b7f496e76616c696420636f6e74656e747300000000000000000000000000000000600082015250565b6000611eab601083611cb2565b9150611eb682611e75565b602082019050919050565b60006020820190508181036000830152611eda81611e9e565b9050919050565b7f4e487b7100000000000000000000000000000000000000000000000000000000600052603260045260246000fd5b7f556e6b6e6f776e207061796d656e744964000000000000000000000000000000600082015250565b6000611f46601183611cb2565b9150611f5182611f10565b602082019050919050565b60006020820190508181036000830152611f7581611f39565b9050919050565b7f416c726561647920636f6d706c65746564000000000000000000000000000000600082015250565b6000611fb2601183611cb2565b9150611fbd82611f7c565b602082019050919050565b60006020820190508181036000830152611fe181611fa5565b9050919050565b7f556e747275737465642070757a7a6c6500000000000000000000000000000000600082015250565b600061201e601083611cb2565b915061202982611fe8565b602082019050919050565b6000602082019050818103600083015261204d81612011565b9050919050565b7f4f766572206465706f73697420616d6f756e7400000000000000000000000000600082015250565b600061208a601383611cb2565b915061209582612054565b602082019050919050565b600060208201905081810360008301526120b98161207d565b9050919050565b7f706173734661696c206d7573742062652030206f722031000000000000000000600082015250565b60006120f6601783611cb2565b9150612101826120c0565b602082019050919050565b60006020820190508181036000830152612125816120e9565b9050919050565b60006040820190506121416000830185611812565b61214e602083018461189c565b9392505050565b61215e81611942565b811461216957600080fd5b50565b60008151905061217b81612155565b92915050565b600060208284031215612197576121966118c6565b5b60006121a58482850161216c565b91505092915050565b7f7472616e73666572206661696c65640000000000000000000000000000000000600082015250565b60006121e4600f83611cb2565b91506121ef826121ae565b602082019050919050565b60006020820190508181036000830152612213816121d7565b9050919050565b7f7061796d656e7449643d30000000000000000000000000000000000000000000600082015250565b6000612250600b83611cb2565b915061225b8261221a565b602082019050919050565b6000602082019050818103600083015261227f81612243565b9050919050565b7f726563697069656e743d30000000000000000000000000000000000000000000600082015250565b60006122bc600b83611cb2565b91506122c782612286565b602082019050919050565b600060208201905081810360008301526122eb816122af565b9050919050565b60008151905061230181611bb7565b92915050565b60006020828403121561231d5761231c6118c6565b5b600061232b848285016122f2565b91505092915050565b7f496e636f7272656374207761727020746f6c6c00000000000000000000000000600082015250565b600061236a601383611cb2565b915061237582612334565b602082019050919050565b600060208201905081810360008301526123998161235d565b9050919050565b7f2164657374206272696467696e673d3000000000000000000000000000000000600082015250565b60006123d6601083611cb2565b91506123e1826123a0565b602082019050919050565b60006020820190508181036000830152612405816123c9565b9050919050565b7f21747275737465643d3000000000000000000000000000000000000000000000600082015250565b6000612442600a83611cb2565b915061244d8261240c565b602082019050919050565b6000602082019050818103600083015261247181612435565b9050919050565b7f616d6f756e743d30000000000000000000000000000000000000000000000000600082015250565b60006124ae600883611cb2565b91506124b982612478565b602082019050919050565b600060208201905081810360008301526124dd816124a1565b9050919050565b7f7061796d656e7449642075736564000000000000000000000000000000000000600082015250565b600061251a600e83611cb2565b9150612525826124e4565b602082019050919050565b600060208201905081810360008301526125498161250d565b9050919050565b60006060820190506125656000830186611812565b6125726020830185611812565b61257f604083018461189c565b949350505050565b7f7472616e7366657246726f6d206661696c656400000000000000000000000000600082015250565b60006125bd601383611cb2565b91506125c882612587565b602082019050919050565b600060208201905081810360008301526125ec816125b0565b9050919050565b7f4e487b7100000000000000000000000000000000000000000000000000000000600052601160045260246000fd5b600061262d82611892565b915061263883611892565b92508282019050808211156126505761264f6125f3565b5b92915050565b600060408201905061266b600083018561189c565b612678602083018461189c565b9392505050565b7f4e487b7100000000000000000000000000000000000000000000000000000000600052604160045260246000fd5b600081519050919050565b600082825260208201905092915050565b6000819050602082019050919050565b6126e3816118d0565b82525050565b60006126f583836126da565b60208301905092915050565b6000602082019050919050565b6000612719826126ae565b61272381856126b9565b935061272e836126ca565b8060005b8381101561275f57815161274688826126e9565b975061275183612701565b925050600181019050612732565b5085935050505092915050565b60006060820190506127816000830186611868565b61278e6020830185611933565b81810360408301526127a0818461270e565b9050949350505050565b7f4f776e61626c653a206e6577206f776e657220697320746865207a65726f206160008201527f6464726573730000000000000000000000000000000000000000000000000000602082015250565b6000612806602683611cb2565b9150612811826127aa565b604082019050919050565b60006020820190508181036000830152612835816127f9565b9050919050565b7f4f776e61626c653a2063616c6c6572206973206e6f7420746865206f776e6572600082015250565b6000612872602083611cb2565b915061287d8261283c565b602082019050919050565b600060208201905081810360008301526128a181612865565b9050919050565b7f5061757361626c653a2070617573656400000000000000000000000000000000600082015250565b60006128de601083611cb2565b91506128e9826128a8565b602082019050919050565b6000602082019050818103600083015261290d816128d1565b9050919050565b7f5265656e7472616e637947756172643a207265656e7472616e742063616c6c00600082015250565b600061294a601f83611cb2565b915061295582612914565b602082019050919050565b600060208201905081810360008301526129798161293d565b9050919050565b7f5061757361626c653a206e6f7420706175736564000000000000000000000000600082015250565b60006129b6601483611cb2565b91506129c182612980565b602082019050919050565b600060208201905081810360008301526129e5816129a9565b905091905056fea264697066735822122017b99281de60a4a80ae942b70a24a0cb6e371aca5576f271e27fd104e1e6fa0764736f6c63430008160033",
  "linkReferences": {},
  "deployedLinkReferences": {}
}