{
  "_format": "hh-sol-artifact-1",
  "contractName": "EscrowVault",
  "sourceName": "contracts/EscrowVault.sol",
  "abi": [
    {
      "inputs": [
        {
          "internalType": "address",
          "name": "_nftContract",
          "type": "address"
        },
        {
          "internalType": "address",
          "name": "_warpPortal",
          "type": "address"
        },
        {
          "internalType": "address",
          "name": "_payoutAddress",
          "type": "address"
        }
      ],
      "stateMutability": "nonpayable",
      "type": "constructor"
    },
    {
      "anonymous": false,
      "inputs": [
        {
          "indexed": true,
          "internalType": "address",
          "name": "previousOwner",
          "type": "address"
        },
        {
          "indexed": true,
          "internalType": "address",
          "name": "newOwner",
          "type": "address"
        }
      ],
      "name": "OwnershipTransferred",
      "type": "event"
    },
    {
      "anonymous": false,
      "inputs": [
        {
          "indexed": false,
          "internalType": "address",
          "name": "account",
          "type": "address"
        }
      ],
      "name": "Paused",
      "type": "event"
    },
    {
      "anonymous": false,
      "inputs": [
        {
          "indexed": true,
          "internalType": "address",
          "name": "user",
          "type": "address"
        },
        {
          "indexed": true,
          "internalType": "bytes32",
          "name": "targetPuzzleHash",
          "type": "bytes32"
        },
        {
          "indexed": false,
          "internalType": "uint256",
          "name": "assetId",
          "type": "uint256"
        },
        {
          "indexed": false,
          "internalType": "uint256",
          "name": "amount",
          "type": "uint256"
        },
        {
          "indexed": false,
          "internalType": "uint256",
          "name": "tollPaid",
          "type": "uint256"
        },
        {
          "indexed": false,
          "internalType": "uint256",
          "name": "depositId",
          "type": "uint256"
        }
      ],
      "name": "PaymentDeposited",
      "type": "event"
    },
    {
      "anonymous": false,
      "inputs": [
        {
          "indexed": true,
          "internalType": "address",
          "name": "recipient",
          "type": "address"
        },
        {
          "indexed": false,
          "internalType": "uint256",
          "name": "assetId",
          "type": "uint256"
        },
        {
          "indexed": false,
          "internalType": "uint256",
          "name": "amount",
          "type": "uint256"
        },
        {
          "indexed": false,
          "internalType": "uint256",
          "name": "depositId",
          "type": "uint256"
        }
      ],
      "name": "PayoutCompleted",
      "type": "event"
    },
    {
      "anonymous": false,
      "inputs": [
        {
          "indexed": true,
          "internalType": "uint256",
          "name": "depositId",
          "type": "uint256"
        },
        {
          "indexed": true,
          "internalType": "address",
          "name": "recipient",
          "type": "address"
        }
      ],
      "name": "PayoutSetByAdmin",
      "type": "event"
    },
    {
      "anonymous": false,
      "inputs": [
        {
          "indexed": false,
          "internalType": "address",
          "name": "account",
          "type": "address"
        }
      ],
      "name": "Unpaused",
      "type": "event"
    },
    {
      "inputs": [
        {
          "internalType": "uint256",
          "name": "",
          "type": "uint256"
        }
      ],
      "name": "activeDeposits",
      "outputs": [
        {
          "internalType": "uint256",
          "name": "",
          "type": "uint256"
        }
      ],
      "stateMutability": "view",
      "type": "function"
    },
    {
      "inputs": [],
      "name": "depositCount",
      "outputs": [
        {
          "internalType": "uint256",
          "name": "",
          "type": "uint256"
        }
      ],
      "stateMutability": "view",
      "type": "function"
    },
    {
      "inputs": [
        {
          "internalType": "bytes32",
          "name": "targetPuzzleHash",
          "type": "bytes32"
        },
        {
          "internalType": "uint256",
          "name": "assetId",
          "type": "uint256"
        },
        {
          "internalType": "uint256",
          "name": "assetAmount",
          "type": "uint256"
        }
      ],
      "name": "depositPayment",
      "outputs": [],
      "stateMutability": "payable",
      "type": "function"
    },
    {
      "inputs": [
        {
          "internalType": "uint256",
          "name": "",
          "type": "uint256"
        }
      ],
      "name": "deposits",
      "outputs": [
        {
          "internalType": "address",
          "name": "user",
          "type": "address"
        },
        {
          "internalType": "bytes32",
          "name": "puzzleHash",
          "type": "bytes32"
        },
        {
          "internalType": "uint256",
          "name": "assetId",
          "type": "uint256"
        },
        {
          "internalType": "uint256",
          "name": "assetAmount",
          "type": "uint256"
        },
        {
          "internalType": "bool",
          "name": "completed",
          "type": "bool"
        }
      ],
      "stateMutability": "view",
      "type": "function"
    },
    {
      "inputs": [],
      "name": "nftContract",
      "outputs": [
        {
          "internalType": "contract IERC1155",
          "name": "",
          "type": "address"
        }
      ],
      "stateMutability": "view",
      "type": "function"
    },
    {
      "inputs": [
        {
          "internalType": "address",
          "name": "",
          "type": "address"
        },
        {
          "internalType": "address",
          "name": "",
          "type": "address"
        },
        {
          "internalType": "uint256[]",
          "name": "",
          "type": "uint256[]"
        },
        {
          "internalType": "uint256[]",
          "name": "",
          "type": "uint256[]"
        },
        {
          "internalType": "bytes",
          "name": "",
          "type": "bytes"
        }
      ],
      "name": "onERC1155BatchReceived",
      "outputs": [
        {
          "internalType": "bytes4",
          "name": "",
          "type": "bytes4"
        }
      ],
      "stateMutability": "nonpayable",
      "type": "function"
    },
    {
      "inputs": [
        {
          "internalType": "address",
          "name": "",
          "type": "address"
        },
        {
          "internalType": "address",
          "name": "",
          "type": "address"
        },
        {
          "internalType": "uint256",
          "name": "",
          "type": "uint256"
        },
        {
          "internalType": "uint256",
          "name": "",
          "type": "uint256"
        },
        {
          "internalType": "bytes",
          "name": "",
          "type": "bytes"
        }
      ],
      "name": "onERC1155Received",
      "outputs": [
        {
          "internalType": "bytes4",
          "name": "",
          "type": "bytes4"
        }
      ],
      "stateMutability": "nonpayable",
      "type": "function"
    },
    {
      "inputs": [
        {
          "internalType": "address",
          "name": "",
          "type": "address"
        },
        {
          "internalType": "address",
          "name": "",
          "type": "address"
        },
        {
          "internalType": "uint256",
          "name": "",
          "type": "uint256"
        },
        {
          "internalType": "bytes",
          "name": "",
          "type": "bytes"
        }
      ],
      "name": "onERC721Received",
      "outputs": [
        {
          "internalType": "bytes4",
          "name": "",
          "type": "bytes4"
        }
      ],
      "stateMutability": "nonpayable",
      "type": "function"
    },
    {
      "inputs": [],
      "name": "owner",
      "outputs": [
        {
          "internalType": "address",
          "name": "",
          "type": "address"
        }
      ],
      "stateMutability": "view",
      "type": "function"
    },
    {
      "inputs": [],
      "name": "pause",
      "outputs": [],
      "stateMutability": "nonpayable",
      "type": "function"
    },
    {
      "inputs": [],
      "name": "paused",
      "outputs": [
        {
          "internalType": "bool",
          "name": "",
          "type": "bool"
        }
      ],
      "stateMutability": "view",
      "type": "function"
    },
    {
      "inputs": [],
      "name": "payoutAddress",
      "outputs": [
        {
          "internalType": "address",
          "name": "",
          "type": "address"
        }
      ],
      "stateMutability": "view",
      "type": "function"
    },
    {
      "inputs": [
        {
          "internalType": "bytes32",
          "name": "_nonce",
          "type": "bytes32"
        },
        {
          "internalType": "bytes3",
          "name": "_source_chain",
          "type": "bytes3"
        },
        {
          "internalType": "bytes32",
          "name": "_source",
          "type": "bytes32"
        },
        {
          "internalType": "bytes32[]",
          "name": "_contents",
          "type": "bytes32[]"
        }
      ],
      "name": "receiveMessage",
      "outputs": [],
      "stateMutability": "nonpayable",
      "type": "function"
    },
    {
      "inputs": [],
      "name": "renounceOwnership",
      "outputs": [],
      "stateMutability": "nonpayable",
      "type": "function"
    },
    {
      "inputs": [
        {
          "internalType": "uint256",
          "name": "depositId",
          "type": "uint256"
        },
        {
          "internalType": "address",
          "name": "recipient",
          "type": "address"
        }
      ],
      "name": "setPayout",
      "outputs": [],
      "stateMutability": "nonpayable",
      "type": "function"
    },
    {
      "inputs": [],
      "name": "sourceChain",
      "outputs": [
        {
          "internalType": "bytes3",
          "name": "",
          "type": "bytes3"
        }
      ],
      "stateMutability": "view",
      "type": "function"
    },
    {
      "inputs": [
        {
          "internalType": "bytes4",
          "name": "interfaceId",
          "type": "bytes4"
        }
      ],
      "name": "supportsInterface",
      "outputs": [
        {
          "internalType": "bool",
          "name": "",
          "type": "bool"
        }
      ],
      "stateMutability": "pure",
      "type": "function"
    },
    {
      "inputs": [
        {
          "internalType": "address",
          "name": "newOwner",
          "type": "address"
        }
      ],
      "name": "transferOwnership",
      "outputs": [],
      "stateMutability": "nonpayable",
      "type": "function"
    },
    {
      "inputs": [],
      "name": "trustedSource",
      "outputs": [
        {
          "internalType": "bytes32",
          "name": "",
          "type": "bytes32"
        }
      ],
      "stateMutability": "view",
      "type": "function"
    },
    {
      "inputs": [],
      "name": "unlockerPuzzleHash",
      "outputs": [
        {
          "internalType": "bytes32",
          "name": "",
          "type": "bytes32"
        }
      ],
      "stateMutability": "view",
      "type": "function"
    },
    {
      "inputs": [],
      "name": "unpause",
      "outputs": [],
      "stateMutability": "nonpayable",
      "type": "function"
    },
    {
      "inputs": [],
      "name": "warpPortal",
      "outputs": [
        {
          "internalType": "address",
          "name": "",
          "type": "address"
        }
      ],
      "stateMutability": "view",
      "type": "function"
    }
  ],
  "bytecode": "0x60806040523480156200001157600080fd5b506040516200346b3803806200346b8339818101604052810190620000379190620003d0565b620000576200004b6200029a60201b60201c565b620002a260201b60201c565b60008060146101000a81548160ff02191690831515021790555060018081905550600073ffffffffffffffffffffffffffffffffffffffff168373ffffffffffffffffffffffffffffffffffffffff1603620000ea576040517f08c379a0000000000000000000000000000000000000000000000000000000008152600401620000e1906200048d565b60405180910390fd5b600073ffffffffffffffffffffffffffffffffffffffff168273ffffffffffffffffffffffffffffffffffffffff16036200015c576040517f08c379a00000000000000000000000000000000000000000000000000000000081526004016200015390620004ff565b60405180910390fd5b600073ffffffffffffffffffffffffffffffffffffffff168173ffffffffffffffffffffffffffffffffffffffff1603620001ce576040517f08c379a0000000000000000000000000000000000000000000000000000000008152600401620001c59062000571565b60405180910390fd5b82600460006101000a81548173ffffffffffffffffffffffffffffffffffffffff021916908373ffffffffffffffffffffffffffffffffffffffff16021790555081600260006101000a81548173ffffffffffffffffffffffffffffffffffffffff021916908373ffffffffffffffffffffffffffffffffffffffff16021790555080600360006101000a81548173ffffffffffffffffffffffffffffffffffffffff021916908373ffffffffffffffffffffffffffffffffffffffff16021790555050505062000593565b600033905090565b60008060009054906101000a900473ffffffffffffffffffffffffffffffffffffffff169050816000806101000a81548173ffffffffffffffffffffffffffffffffffffffff021916908373ffffffffffffffffffffffffffffffffffffffff1602179055508173ffffffffffffffffffffffffffffffffffffffff168173ffffffffffffffffffffffffffffffffffffffff167f8be0079c531659141344cd1fd0a4f28419497f9722a3daafe3b4186f6b6457e060405160405180910390a35050565b600080fd5b600073ffffffffffffffffffffffffffffffffffffffff82169050919050565b600062000398826200036b565b9050919050565b620003aa816200038b565b8114620003b657600080fd5b50565b600081519050620003ca816200039f565b92915050565b600080600060608486031215620003ec57620003eb62000366565b5b6000620003fc86828701620003b9565b93505060206200040f86828701620003b9565b92505060406200042286828701620003b9565b9150509250925092565b600082825260208201905092915050565b7f4e465420636f6e7472616374203d207a65726f00000000000000000000000000600082015250565b6000620004756013836200042c565b915062000482826200043d565b602082019050919050565b60006020820190508181036000830152620004a88162000466565b9050919050565b7f57617270506f7274616c203d207a65726f000000000000000000000000000000600082015250565b6000620004e76011836200042c565b9150620004f482620004af565b602082019050919050565b600060208201905081810360008301526200051a81620004d8565b9050919050565b7f5061796f75742061646472657373203d207a65726f0000000000000000000000600082015250565b6000620005596015836200042c565b9150620005668262000521565b602082019050919050565b600060208201905081810360008301526200058c816200054a565b9050919050565b612ec880620005a36000396000f3fe6080604052600436106101355760003560e01c806390693ca7116100ab578063d56d229d1161006f578063d56d229d1461040a578063e20bf26414610435578063e775c16514610451578063ead9fcb31461047a578063f23a6e61146104a5578063f2fde38b146104e257610135565b806390693ca7146102f9578063b02c43d014610336578063bc197c8114610377578063cb999523146103b4578063d0cad76e146103df57610135565b8063574632fc116100fd578063574632fc146102215780635b8d02d71461024a5780635c975abb14610275578063715018a6146102a05780638456cb59146102b75780638da5cb5b146102ce57610135565b806301ffc9a71461013a578063150b7a02146101775780631c6ffa46146101b45780632dfdf0b5146101df5780633f4ba83a1461020a575b600080fd5b34801561014657600080fd5b50610161600480360381019061015c91906119cd565b61050b565b60405161016e9190611a15565b60405180910390f35b34801561018357600080fd5b5061019e60048036038101906101999190611b29565b6105dd565b6040516101ab9190611bc0565b60405180910390f35b3480156101c057600080fd5b506101c96105f2565b6040516101d69190611c16565b60405180910390f35b3480156101eb57600080fd5b506101f4610605565b6040516102019190611c40565b60405180910390f35b34801561021657600080fd5b5061021f61060b565b005b34801561022d57600080fd5b5061024860048036038101906102439190611d13565b61061d565b005b34801561025657600080fd5b5061025f610b55565b60405161026c9190611daa565b60405180910390f35b34801561028157600080fd5b5061028a610b7b565b6040516102979190611a15565b60405180910390f35b3480156102ac57600080fd5b506102b5610b91565b005b3480156102c357600080fd5b506102cc610ba5565b005b3480156102da57600080fd5b506102e3610bb7565b6040516102f09190611daa565b60405180910390f35b34801561030557600080fd5b50610320600480360381019061031b9190611dc5565b610be0565b60405161032d9190611c40565b60405180910390f35b34801561034257600080fd5b5061035d60048036038101906103589190611dc5565b610bf8565b60405161036e959493929190611e01565b60405180910390f35b34801561038357600080fd5b5061039e60048036038101906103999190611eaa565b610c5b565b6040516103ab9190611bc0565b60405180910390f35b3480156103c057600080fd5b506103c9610d03565b6040516103d69190611f86565b60405180910390f35b3480156103eb57600080fd5b506103f4610d09565b6040516104019190611f86565b60405180910390f35b34801561041657600080fd5b5061041f610d0f565b60405161042c9190612000565b60405180910390f35b61044f600480360381019061044a919061201b565b610d35565b005b34801561045d57600080fd5b506104786004803603810190610473919061206e565b611260565b005b34801561048657600080fd5b5061048f611522565b60405161049c9190611daa565b60405180910390f35b3480156104b157600080fd5b506104cc60048036038101906104c791906120ae565b611548565b6040516104d99190611bc0565b60405180910390f35b3480156104ee57600080fd5b5061050960048036038101906105049190612148565b6115ee565b005b60007f4e2312e0000000000000000000000000000000000000000000000000000000007bffffffffffffffffffffffffffffffffffffffffffffffffffffffff1916827bffffffffffffffffffffffffffffffffffffffffffffffffffffffff191614806105d657507f150b7a02000000000000000000000000000000000000000000000000000000007bffffffffffffffffffffffffffffffffffffffffffffffffffffffff1916827bffffffffffffffffffffffffffffffffffffffffffffffffffffffff1916145b9050919050565b600063150b7a0260e01b905095945050505050565b600460149054906101000a900460e81b81565b60085481565b610613611671565b61061b6116ef565b565b610625611751565b61062d61179b565b600260009054906101000a900473ffffffffffffffffffffffffffffffffffffffff1673ffffffffffffffffffffffffffffffffffffffff163373ffffffffffffffffffffffffffffffffffffffff16146106bd576040517f08c379a00000000000000000000000000000000000000000000000000000000081526004016106b4906121d2565b60405180910390fd5b600460149054906101000a900460e81b7cffffffffffffffffffffffffffffffffffffffffffffffffffffffffff1916847cffffffffffffffffffffffffffffffffffffffffffffffffffffffffff19161461074e576040517f08c379a00000000000000000000000000000000000000000000000000000000081526004016107459061223e565b60405180910390fd5b6005548314610792576040517f08c379a0000000000000000000000000000000000000000000000000000000008152600401610789906122aa565b60405180910390fd5b600084866040516020016107a792919061230c565b6040516020818303038152906040528051906020012090506007600082815260200190815260200160002060009054906101000a900460ff1615610820576040517f08c379a000000000000000000000000000000000000000000000000000000000815260040161081790612384565b60405180910390fd5b60016007600083815260200190815260200160002060006101000a81548160ff0219169083151502179055506003838390501015610893576040517f08c379a000000000000000000000000000000000000000000000000000000000815260040161088a906123f0565b60405180910390fd5b6000838360018181106108a9576108a8612410565b5b9050602002013560001c90506000848460028181106108cb576108ca612410565b5b9050602002013560001c90506000600a600084815260200190815260200160002054905060008103610932576040517f08c379a00000000000000000000000000000000000000000000000000000000081526004016109299061248b565b60405180910390fd5b60006009600083815260200190815260200160002090508060040160009054906101000a900460ff161561099b576040517f08c379a0000000000000000000000000000000000000000000000000000000008152600401610992906124f7565b60405180910390fd5b80600301548311156109e2576040517f08c379a00000000000000000000000000000000000000000000000000000000081526004016109d990612563565b60405180910390fd5b60018160040160006101000a81548160ff0219169083151502179055506000600a600086815260200190815260200160002081905550600460009054906101000a900473ffffffffffffffffffffffffffffffffffffffff1673ffffffffffffffffffffffffffffffffffffffff1663f242432a30600360009054906101000a900473ffffffffffffffffffffffffffffffffffffffff1687876040518563ffffffff1660e01b8152600401610a9b94939291906125ba565b600060405180830381600087803b158015610ab557600080fd5b505af1158015610ac9573d6000803e3d6000fd5b50505050600360009054906101000a900473ffffffffffffffffffffffffffffffffffffffff1673ffffffffffffffffffffffffffffffffffffffff167f347d807d5a6f271342a81e6a9906d54b3877b093c01331e41b1cf2d3dc2a5434858585604051610b3993929190612612565b60405180910390a25050505050610b4e6117ea565b5050505050565b600360009054906101000a900473ffffffffffffffffffffffffffffffffffffffff1681565b60008060149054906101000a900460ff16905090565b610b99611671565b610ba360006117f3565b565b610bad611671565b610bb56118b7565b565b60008060009054906101000a900473ffffffffffffffffffffffffffffffffffffffff16905090565b600a6020528060005260406000206000915090505481565b60096020528060005260406000206000915090508060000160009054906101000a900473ffffffffffffffffffffffffffffffffffffffff16908060010154908060020154908060030154908060040160009054906101000a900460ff16905085565b6000600460009054906101000a900473ffffffffffffffffffffffffffffffffffffffff1673ffffffffffffffffffffffffffffffffffffffff163373ffffffffffffffffffffffffffffffffffffffff1614610ced576040517f08c379a0000000000000000000000000000000000000000000000000000000008152600401610ce4906126bb565b60405180910390fd5b63bc197c8160e01b905098975050505050505050565b60055481565b60065481565b600460009054906101000a900473ffffffffffffffffffffffffffffffffffffffff1681565b610d3d611751565b610d4561179b565b6000600260009054906101000a900473ffffffffffffffffffffffffffffffffffffffff1673ffffffffffffffffffffffffffffffffffffffff166379c06b8b6040518163ffffffff1660e01b8152600401602060405180830381865afa158015610db4573d6000803e3d6000fd5b505050506040513d601f19601f82011682018060405250810190610dd891906126f0565b9050803414610e1c576040517f08c379a0000000000000000000000000000000000000000000000000000000008152600401610e1390612769565b60405180910390fd5b60008211610e5f576040517f08c379a0000000000000000000000000000000000000000000000000000000008152600401610e56906127d5565b60405180910390fd5b6000801b8403610ea4576040517f08c379a0000000000000000000000000000000000000000000000000000000008152600401610e9b90612841565b60405180910390fd5b6000600a60008581526020019081526020016000205414610efa576040517f08c379a0000000000000000000000000000000000000000000000000000000008152600401610ef1906128ad565b60405180910390fd5b600460009054906101000a900473ffffffffffffffffffffffffffffffffffffffff1673ffffffffffffffffffffffffffffffffffffffff1663f242432a333086866040518563ffffffff1660e01b8152600401610f5b94939291906125ba565b600060405180830381600087803b158015610f7557600080fd5b505af1158015610f89573d6000803e3d6000fd5b50505050600160086000828254610fa091906128fc565b92505081905550600060085490506040518060a001604052803373ffffffffffffffffffffffffffffffffffffffff168152602001868152602001858152602001848152602001600015158152506009600083815260200190815260200160002060008201518160000160006101000a81548173ffffffffffffffffffffffffffffffffffffffff021916908373ffffffffffffffffffffffffffffffffffffffff16021790555060208201518160010155604082015181600201556060820151816003015560808201518160040160006101000a81548160ff02191690831515021790555090505080600a600086815260200190815260200160002081905550843373ffffffffffffffffffffffffffffffffffffffff167f909a5c268b307920947dc6cd76e531eca276327888a54bf0ad9d8b75103a6772868634866040516110ee9493929190612930565b60405180910390a36000600367ffffffffffffffff81111561111357611112612975565b5b6040519080825280602002602001820160405280156111415781602001602082028036833780820191505090505b509050858160008151811061115957611158612410565b5b6020026020010181815250508460001b8160018151811061117d5761117c612410565b5b6020026020010181815250508360001b816002815181106111a1576111a0612410565b5b602002602001018181525050600260009054906101000a900473ffffffffffffffffffffffffffffffffffffffff1673ffffffffffffffffffffffffffffffffffffffff1663b3882f8984600460149054906101000a900460e81b600654856040518563ffffffff1660e01b815260040161121e93929190612a62565b6000604051808303818588803b15801561123757600080fd5b505af115801561124b573d6000803e3d6000fd5b505050505050505061125b6117ea565b505050565b611268611671565b611270611751565b61127861179b565b6000821415801561128b57506008548211155b6112ca576040517f08c379a00000000000000000000000000000000000000000000000000000000081526004016112c190612aec565b60405180910390fd5b600073ffffffffffffffffffffffffffffffffffffffff168173ffffffffffffffffffffffffffffffffffffffff1603611339576040517f08c379a000000000000000000000000000000000000000000000000000000000815260040161133090612b58565b60405180910390fd5b60006009600084815260200190815260200160002090508060040160009054906101000a900460ff16156113a2576040517f08c379a000000000000000000000000000000000000000000000000000000000815260040161139990612bc4565b60405180910390fd5b60018160040160006101000a81548160ff0219169083151502179055506000600a60008360020154815260200190815260200160002081905550600460009054906101000a900473ffffffffffffffffffffffffffffffffffffffff1673ffffffffffffffffffffffffffffffffffffffff1663f242432a3084846002015485600301546040518563ffffffff1660e01b815260040161144594939291906125ba565b600060405180830381600087803b15801561145f57600080fd5b505af1158015611473573d6000803e3d6000fd5b505050508173ffffffffffffffffffffffffffffffffffffffff16837f40c2cd002792275090da0e37056973615497d485c42d28ff11360dab80b6dcfa60405160405180910390a38173ffffffffffffffffffffffffffffffffffffffff167f347d807d5a6f271342a81e6a9906d54b3877b093c01331e41b1cf2d3dc2a5434826002015483600301548660405161150d93929190612612565b60405180910390a25061151e6117ea565b5050565b600260009054906101000a900473ffffffffffffffffffffffffffffffffffffffff1681565b6000600460009054906101000a900473ffffffffffffffffffffffffffffffffffffffff1673ffffffffffffffffffffffffffffffffffffffff163373ffffffffffffffffffffffffffffffffffffffff16146115da576040517f08c379a00000000000000000000000000000000000000000000000000000000081526004016115d190612c30565b60405180910390fd5b63f23a6e6160e01b90509695505050505050565b6115f6611671565b600073ffffffffffffffffffffffffffffffffffffffff168173ffffffffffffffffffffffffffffffffffffffff1603611665576040517f08c379a000000000000000000000000000000000000000000000000000000000815260040161165c90612cc2565b60405180910390fd5b61166e816117f3565b50565b61167961191a565b73ffffffffffffffffffffffffffffffffffffffff16611697610bb7565b73ffffffffffffffffffffffffffffffffffffffff16146116ed576040517f08c379a00000000000000000000000000000000000000000000000000000000081526004016116e490612d2e565b60405180910390fd5b565b6116f7611922565b60008060146101000a81548160ff0219169083151502179055507f5db9ee0a495bf2e6ff9c91a7834c1ba4fdd244a5e8aa4e537bd38aeae4b073aa61173a61191a565b6040516117479190611daa565b60405180910390a1565b611759610b7b565b15611799576040517f08c379a000000000000000000000000000000000000000000000000000000000815260040161179090612d9a565b60405180910390fd5b565b6002600154036117e0576040517f08c379a00000000000000000000000000000000000000000000000000000000081526004016117d790612e06565b60405180910390fd5b6002600181905550565b60018081905550565b60008060009054906101000a900473ffffffffffffffffffffffffffffffffffffffff169050816000806101000a81548173ffffffffffffffffffffffffffffffffffffffff021916908373ffffffffffffffffffffffffffffffffffffffff1602179055508173ffffffffffffffffffffffffffffffffffffffff168173ffffffffffffffffffffffffffffffffffffffff167f8be0079c531659141344cd1fd0a4f28419497f9722a3daafe3b4186f6b6457e060405160405180910390a35050565b6118bf611751565b6001600060146101000a81548160ff0219169083151502179055507f62e78cea01bee320cd4e420270b5ea74000d11b0c9f74754ebdbfc544b05a25861190361191a565b6040516119109190611daa565b60405180910390a1565b600033905090565b61192a610b7b565b611969576040517f08c379a000000000000000000000000000000000000000000000000000000000815260040161196090612e72565b60405180910390fd5b565b600080fd5b600080fd5b60007fffffffff0000000000000000000000000000000000000000000000000000000082169050919050565b6119aa81611975565b81146119b557600080fd5b50565b6000813590506119c7816119a1565b92915050565b6000602082840312156119e3576119e261196b565b5b60006119f1848285016119b8565b91505092915050565b60008115159050919050565b611a0f816119fa565b82525050565b6000602082019050611a2a6000830184611a06565b92915050565b600073ffffffffffffffffffffffffffffffffffffffff82169050919050565b6000611a5b82611a30565b9050919050565b611a6b81611a50565b8114611a7657600080fd5b50565b600081359050611a8881611a62565b92915050565b6000819050919050565b611aa181611a8e565b8114611aac57600080fd5b50565b600081359050611abe81611a98565b92915050565b600080fd5b600080fd5b600080fd5b60008083601f840112611ae957611ae8611ac4565b5b8235905067ffffffffffffffff811115611b0657611b05611ac9565b5b602083019150836001820283011115611b2257611b21611ace565b5b9250929050565b600080600080600060808688031215611b4557611b4461196b565b5b6000611b5388828901611a79565b9550506020611b6488828901611a79565b9450506040611b7588828901611aaf565b935050606086013567ffffffffffffffff811115611b9657611b95611970565b5b611ba288828901611ad3565b92509250509295509295909350565b611bba81611975565b82525050565b6000602082019050611bd56000830184611bb1565b92915050565b60007fffffff000000000000000000000000000000000000000000000000000000000082169050919050565b611c1081611bdb565b82525050565b6000602082019050611c2b6000830184611c07565b92915050565b611c3a81611a8e565b82525050565b6000602082019050611c556000830184611c31565b92915050565b6000819050919050565b611c6e81611c5b565b8114611c7957600080fd5b50565b600081359050611c8b81611c65565b92915050565b611c9a81611bdb565b8114611ca557600080fd5b50565b600081359050611cb781611c91565b92915050565b60008083601f840112611cd357611cd2611ac4565b5b8235905067ffffffffffffffff811115611cf057611cef611ac9565b5b602083019150836020820283011115611d0c57611d0b611ace565b5b9250929050565b600080600080600060808688031215611d2f57611d2e61196b565b5b6000611d3d88828901611c7c565b9550506020611d4e88828901611ca8565b9450506040611d5f88828901611c7c565b935050606086013567ffffffffffffffff811115611d8057611d7f611970565b5b611d8c88828901611cbd565b92509250509295509295909350565b611da481611a50565b82525050565b6000602082019050611dbf6000830184611d9b565b92915050565b600060208284031215611ddb57611dda61196b565b5b6000611de984828501611aaf565b91505092915050565b611dfb81611c5b565b82525050565b600060a082019050611e166000830188611d9b565b611e236020830187611df2565b611e306040830186611c31565b611e3d6060830185611c31565b611e4a6080830184611a06565b9695505050505050565b60008083601f840112611e6a57611e69611ac4565b5b8235905067ffffffffffffffff811115611e8757611e86611ac9565b5b602083019150836020820283011115611ea357611ea2611ace565b5b9250929050565b60008060008060008060008060a0898b031215611eca57611ec961196b565b5b6000611ed88b828c01611a79565b9850506020611ee98b828c01611a79565b975050604089013567ffffffffffffffff811115611f0a57611f09611970565b5b611f168b828c01611e54565b9650965050606089013567ffffffffffffffff811115611f3957611f38611970565b5b611f458b828c01611e54565b9450945050608089013567ffffffffffffffff811115611f6857611f67611970565b5b611f748b828c01611ad3565b92509250509295985092959890939650565b6000602082019050611f9b6000830184611df2565b92915050565b6000819050919050565b6000611fc6611fc1611fbc84611a30565b611fa1565b611a30565b9050919050565b6000611fd882611fab565b9050919050565b6000611fea82611fcd565b9050919050565b611ffa81611fdf565b82525050565b60006020820190506120156000830184611ff1565b92915050565b6000806000606084860312156120345761203361196b565b5b600061204286828701611c7c565b935050602061205386828701611aaf565b925050604061206486828701611aaf565b9150509250925092565b600080604083850312156120855761208461196b565b5b600061209385828601611aaf565b92505060206120a485828601611a79565b9150509250929050565b60008060008060008060a087890312156120cb576120ca61196b565b5b60006120d989828a01611a79565b96505060206120ea89828a01611a79565b95505060406120fb89828a01611aaf565b945050606061210c89828a01611aaf565b935050608087013567ffffffffffffffff81111561212d5761212c611970565b5b61213989828a01611ad3565b92509250509295509295509295565b60006020828403121561215e5761215d61196b565b5b600061216c84828501611a79565b91505092915050565b600082825260208201905092915050565b7f4e6f74207761727020706f7274616c0000000000000000000000000000000000600082015250565b60006121bc600f83612175565b91506121c782612186565b602082019050919050565b600060208201905081810360008301526121eb816121af565b9050919050565b7f57726f6e6720736f7572636520636861696e0000000000000000000000000000600082015250565b6000612228601283612175565b9150612233826121f2565b602082019050919050565b600060208201905081810360008301526122578161221b565b9050919050565b7f556e6b6e6f776e20736f757263652070757a7a6c650000000000000000000000600082015250565b6000612294601583612175565b915061229f8261225e565b602082019050919050565b600060208201905081810360008301526122c381612287565b9050919050565b6000819050919050565b6122e56122e082611bdb565b6122ca565b82525050565b6000819050919050565b61230661230182611c5b565b6122eb565b82525050565b600061231882856122d4565b60038201915061232882846122f5565b6020820191508190509392505050565b7f5265706c61792064657465637465640000000000000000000000000000000000600082015250565b600061236e600f83612175565b915061237982612338565b602082019050919050565b6000602082019050818103600083015261239d81612361565b9050919050565b7f496e76616c696420636f6e74656e747300000000000000000000000000000000600082015250565b60006123da601083612175565b91506123e5826123a4565b602082019050919050565b60006020820190508181036000830152612409816123cd565b9050919050565b7f4e487b7100000000000000000000000000000000000000000000000000000000600052603260045260246000fd5b7f4e6f20616374697665206465706f736974000000000000000000000000000000600082015250565b6000612475601183612175565b91506124808261243f565b602082019050919050565b600060208201905081810360008301526124a481612468565b9050919050565b7f4465706f73697420636f6d706c65746564000000000000000000000000000000600082015250565b60006124e1601183612175565b91506124ec826124ab565b602082019050919050565b60006020820190508181036000830152612510816124d4565b9050919050565b7f4f766572206465706f73697420616d6f756e7400000000000000000000000000600082015250565b600061254d601383612175565b915061255882612517565b602082019050919050565b6000602082019050818103600083015261257c81612540565b9050919050565b600082825260208201905092915050565b50565b60006125a4600083612583565b91506125af82612594565b600082019050919050565b600060a0820190506125cf6000830187611d9b565b6125dc6020830186611d9b565b6125e96040830185611c31565b6125f66060830184611c31565b818103608083015261260781612597565b905095945050505050565b60006060820190506126276000830186611c31565b6126346020830185611c31565b6126416040830184611c31565b949350505050565b7f556e7265636f676e697a656420455243313135352062617463682073656e646560008201527f7200000000000000000000000000000000000000000000000000000000000000602082015250565b60006126a5602183612175565b91506126b082612649565b604082019050919050565b600060208201905081810360008301526126d481612698565b9050919050565b6000815190506126ea81611a98565b92915050565b6000602082840312156127065761270561196b565b5b6000612714848285016126db565b91505092915050565b7f496e636f7272656374207761727020746f6c6c00000000000000000000000000600082015250565b6000612753601383612175565b915061275e8261271d565b602082019050919050565b6000602082019050818103600083015261278281612746565b9050919050565b7f417373657420616d6f756e743d30000000000000000000000000000000000000600082015250565b60006127bf600e83612175565b91506127ca82612789565b602082019050919050565b600060208201905081810360008301526127ee816127b2565b9050919050565b7f74617267657450757a7a6c65486173683d7a65726f0000000000000000000000600082015250565b600061282b601583612175565b9150612836826127f5565b602082019050919050565b6000602082019050818103600083015261285a8161281e565b9050919050565b7f417373657420494420697320696e20616374697665206465706f736974000000600082015250565b6000612897601d83612175565b91506128a282612861565b602082019050919050565b600060208201905081810360008301526128c68161288a565b9050919050565b7f4e487b7100000000000000000000000000000000000000000000000000000000600052601160045260246000fd5b600061290782611a8e565b915061291283611a8e565b925082820190508082111561292a576129296128cd565b5b92915050565b60006080820190506129456000830187611c31565b6129526020830186611c31565b61295f6040830185611c31565b61296c6060830184611c31565b95945050505050565b7f4e487b7100000000000000000000000000000000000000000000000000000000600052604160045260246000fd5b600081519050919050565b600082825260208201905092915050565b6000819050602082019050919050565b6129d981611c5b565b82525050565b60006129eb83836129d0565b60208301905092915050565b6000602082019050919050565b6000612a0f826129a4565b612a1981856129af565b9350612a24836129c0565b8060005b83811015612a55578151612a3c88826129df565b9750612a47836129f7565b925050600181019050612a28565b5085935050505092915050565b6000606082019050612a776000830186611c07565b612a846020830185611df2565b8181036040830152612a968184612a04565b9050949350505050565b7f496e76616c6964206465706f7369744964000000000000000000000000000000600082015250565b6000612ad6601183612175565b9150612ae182612aa0565b602082019050919050565b60006020820190508181036000830152612b0581612ac9565b9050919050565b7f526563697069656e743d7a65726f000000000000000000000000000000000000600082015250565b6000612b42600e83612175565b9150612b4d82612b0c565b602082019050919050565b60006020820190508181036000830152612b7181612b35565b9050919050565b7f416c726561647920636f6d706c65746564000000000000000000000000000000600082015250565b6000612bae601183612175565b9150612bb982612b78565b602082019050919050565b60006020820190508181036000830152612bdd81612ba1565b9050919050565b7f556e7265636f676e697a656420455243313135352073656e6465720000000000600082015250565b6000612c1a601b83612175565b9150612c2582612be4565b602082019050919050565b60006020820190508181036000830152612c4981612c0d565b9050919050565b7f4f776e61626c653a206e6577206f776e657220697320746865207a65726f206160008201527f6464726573730000000000000000000000000000000000000000000000000000602082015250565b6000612cac602683612175565b9150612cb782612c50565b604082019050919050565b60006020820190508181036000830152612cdb81612c9f565b9050919050565b7f4f776e61626c653a2063616c6c6572206973206e6f7420746865206f776e6572600082015250565b6000612d18602083612175565b9150612d2382612ce2565b602082019050919050565b60006020820190508181036000830152612d4781612d0b565b9050919050565b7f5061757361626c653a2070617573656400000000000000000000000000000000600082015250565b6000612d84601083612175565b9150612d8f82612d4e565b602082019050919050565b60006020820190508181036000830152612db381612d77565b9050919050565b7f5265656e7472616e637947756172643a207265656e7472616e742063616c6c00600082015250565b6000612df0601f83612175565b9150612dfb82612dba565b602082019050919050565b60006020820190508181036000830152612e1f81612de3565b9050919050565b7f5061757361626c653a206e6f7420706175736564000000000000000000000000600082015250565b6000612e5c601483612175565b9150612e6782612e26565b602082019050919050565b60006020820190508181036000830152612e8b81612e4f565b905091905056fea26469706673582212202e454e7229eb88b3eb1c0d1d41de1a1c0f250e46afee5f4f28bcfafee5783e2164736f6c63430008160033",
  "linkReferences": {},
  "deployedLinkReferences": {}
}