{
  "_format": "hh-sol-artifact-1",
  "contractName": "EscrowVault",
  "sourceName": "contracts/EscrowVault.sol",
  "abi": [
    {
      "inputs": [
        {
          "internalType": "address",
          "name": "_usdc",
          "type": "address"
        },
        {
          "internalType": "address",
          "name": "_warpPortal",
          "type": "address"
        },
        {
          "internalType": "address",
          "name": "_payoutAddr",
          "type": "address"
        },
        {
          "internalType": "bytes3",
          "name": "_sourceChain",
          "type": "bytes3"
        }
      ],
      "stateMutability": "nonpayable",
      "type": "constructor"
    },
    {
      "anonymous": false,
      "inputs": [
        {
          "indexed": true,
          "internalType": "address",
          "name": "previousOwner",
          "type": "address"
        },
        {
          "indexed": true,
          "internalType": "address",
          "name": "newOwner",
          "type": "address"
        }
      ],
      "name": "OwnershipTransferred",
      "type": "event"
    },
    {
      "anonymous": false,
      "inputs": [
        {
          "indexed": false,
          "internalType": "address",
          "name": "account",
          "type": "address"
        }
      ],
      "name": "Paused",
      "type": "event"
    },
    {
      "anonymous": false,
      "inputs": [
        {
          "indexed": true,
          "internalType": "bytes32",
          "name": "paymentId",
          "type": "bytes32"
        },
        {
          "indexed": true,
          "internalType": "address",
          "name": "user",
          "type": "address"
        },
        {
          "indexed": false,
          "internalType": "uint256",
          "name": "amountUSDC",
          "type": "uint256"
        },
        {
          "indexed": false,
          "internalType": "uint256",
          "name": "tollPaid",
          "type": "uint256"
        }
      ],
      "name": "PaymentDeposited",
      "type": "event"
    },
    {
      "anonymous": false,
      "inputs": [
        {
          "indexed": true,
          "internalType": "bytes32",
          "name": "paymentId",
          "type": "bytes32"
        },
        {
          "indexed": false,
          "internalType": "uint256",
          "name": "amountUSDC",
          "type": "uint256"
        },
        {
          "indexed": true,
          "internalType": "address",
          "name": "recipient",
          "type": "address"
        }
      ],
      "name": "PayoutCompleted",
      "type": "event"
    },
    {
      "anonymous": false,
      "inputs": [
        {
          "indexed": true,
          "internalType": "bytes32",
          "name": "paymentId",
          "type": "bytes32"
        },
        {
          "indexed": true,
          "internalType": "address",
          "name": "recipient",
          "type": "address"
        }
      ],
      "name": "PayoutSetByAdmin",
      "type": "event"
    },
    {
      "anonymous": false,
      "inputs": [
        {
          "indexed": false,
          "internalType": "address",
          "name": "account",
          "type": "address"
        }
      ],
      "name": "Unpaused",
      "type": "event"
    },
    {
      "inputs": [],
      "name": "depositCount",
      "outputs": [
        {
          "internalType": "uint256",
          "name": "",
          "type": "uint256"
        }
      ],
      "stateMutability": "view",
      "type": "function"
    },
    {
      "inputs": [
        {
          "internalType": "bytes32",
          "name": "collectionId",
          "type": "bytes32"
        },
        {
          "internalType": "bytes32",
          "name": "paymentId",
          "type": "bytes32"
        },
        {
          "internalType": "bytes32",
          "name": "bridgingPuzzle",
          "type": "bytes32"
        },
        {
          "internalType": "bytes32",
          "name": "trustedPuzzle",
          "type": "bytes32"
        },
        {
          "internalType": "bytes32",
          "name": "destinationPuzzle",
          "type": "bytes32"
        },
        {
          "internalType": "uint256",
          "name": "amountUSDC",
          "type": "uint256"
        },
        {
          "internalType": "uint256",
          "name": "quantity",
          "type": "uint256"
        },
        {
          "internalType": "bytes32",
          "name": "offerId",
          "type": "bytes32"
        }
      ],
      "name": "depositPayment",
      "outputs": [],
      "stateMutability": "payable",
      "type": "function"
    },
    {
      "inputs": [
        {
          "internalType": "bytes32",
          "name": "",
          "type": "bytes32"
        }
      ],
      "name": "deposits",
      "outputs": [
        {
          "internalType": "address",
          "name": "user",
          "type": "address"
        },
        {
          "internalType": "bytes32",
          "name": "collectionId",
          "type": "bytes32"
        },
        {
          "internalType": "bytes32",
          "name": "paymentId",
          "type": "bytes32"
        },
        {
          "internalType": "bytes32",
          "name": "bridgingPuzzle",
          "type": "bytes32"
        },
        {
          "internalType": "bytes32",
          "name": "trustedPuzzle",
          "type": "bytes32"
        },
        {
          "internalType": "bytes32",
          "name": "destinationPuzzle",
          "type": "bytes32"
        },
        {
          "internalType": "uint256",
          "name": "amountUSDC",
          "type": "uint256"
        },
        {
          "internalType": "uint256",
          "name": "quantity",
          "type": "uint256"
        },
        {
          "internalType": "bytes32",
          "name": "offerId",
          "type": "bytes32"
        },
        {
          "internalType": "bool",
          "name": "completed",
          "type": "bool"
        }
      ],
      "stateMutability": "view",
      "type": "function"
    },
    {
      "inputs": [],
      "name": "owner",
      "outputs": [
        {
          "internalType": "address",
          "name": "",
          "type": "address"
        }
      ],
      "stateMutability": "view",
      "type": "function"
    },
    {
      "inputs": [],
      "name": "pause",
      "outputs": [],
      "stateMutability": "nonpayable",
      "type": "function"
    },
    {
      "inputs": [],
      "name": "paused",
      "outputs": [
        {
          "internalType": "bool",
          "name": "",
          "type": "bool"
        }
      ],
      "stateMutability": "view",
      "type": "function"
    },
    {
      "inputs": [],
      "name": "payoutAddress",
      "outputs": [
        {
          "internalType": "address",
          "name": "",
          "type": "address"
        }
      ],
      "stateMutability": "view",
      "type": "function"
    },
    {
      "inputs": [
        {
          "internalType": "bytes32",
          "name": "_nonce",
          "type": "bytes32"
        },
        {
          "internalType": "bytes3",
          "name": "_source_chain",
          "type": "bytes3"
        },
        {
          "internalType": "bytes32",
          "name": "_source",
          "type": "bytes32"
        },
        {
          "internalType": "bytes32[]",
          "name": "_contents",
          "type": "bytes32[]"
        }
      ],
      "name": "receiveMessage",
      "outputs": [],
      "stateMutability": "nonpayable",
      "type": "function"
    },
    {
      "inputs": [],
      "name": "renounceOwnership",
      "outputs": [],
      "stateMutability": "nonpayable",
      "type": "function"
    },
    {
      "inputs": [
        {
          "internalType": "bytes32",
          "name": "paymentId",
          "type": "bytes32"
        },
        {
          "internalType": "address",
          "name": "recipient",
          "type": "address"
        }
      ],
      "name": "setPayout",
      "outputs": [],
      "stateMutability": "nonpayable",
      "type": "function"
    },
    {
      "inputs": [
        {
          "internalType": "bytes3",
          "name": "_sourceChain",
          "type": "bytes3"
        }
      ],
      "name": "setSourceChain",
      "outputs": [],
      "stateMutability": "nonpayable",
      "type": "function"
    },
    {
      "inputs": [],
      "name": "sourceChain",
      "outputs": [
        {
          "internalType": "bytes3",
          "name": "",
          "type": "bytes3"
        }
      ],
      "stateMutability": "view",
      "type": "function"
    },
    {
      "inputs": [
        {
          "internalType": "address",
          "name": "newOwner",
          "type": "address"
        }
      ],
      "name": "transferOwnership",
      "outputs": [],
      "stateMutability": "nonpayable",
      "type": "function"
    },
    {
      "inputs": [],
      "name": "unpause",
      "outputs": [],
      "stateMutability": "nonpayable",
      "type": "function"
    },
    {
      "inputs": [],
      "name": "usdcAddress",
      "outputs": [
        {
          "internalType": "address",
          "name": "",
          "type": "address"
        }
      ],
      "stateMutability": "view",
      "type": "function"
    },
    {
      "inputs": [],
      "name": "warpPortal",
      "outputs": [
        {
          "internalType": "address",
          "name": "",
          "type": "address"
        }
      ],
      "stateMutability": "view",
      "type": "function"
    }
  ],
  "bytecode": "0x60806040523480156200001157600080fd5b50604051620030d4380380620030d483398181016040528101906200003791906200044b565b620000576200004b620002b860201b60201c565b620002c060201b60201c565b60008060146101000a81548160ff02191690831515021790555060018081905550600073ffffffffffffffffffffffffffffffffffffffff168473ffffffffffffffffffffffffffffffffffffffff1603620000ea576040517f08c379a0000000000000000000000000000000000000000000000000000000008152600401620000e1906200051e565b60405180910390fd5b600073ffffffffffffffffffffffffffffffffffffffff168373ffffffffffffffffffffffffffffffffffffffff16036200015c576040517f08c379a0000000000000000000000000000000000000000000000000000000008152600401620001539062000590565b60405180910390fd5b600073ffffffffffffffffffffffffffffffffffffffff168273ffffffffffffffffffffffffffffffffffffffff1603620001ce576040517f08c379a0000000000000000000000000000000000000000000000000000000008152600401620001c59062000602565b60405180910390fd5b83600260006101000a81548173ffffffffffffffffffffffffffffffffffffffff021916908373ffffffffffffffffffffffffffffffffffffffff16021790555082600360006101000a81548173ffffffffffffffffffffffffffffffffffffffff021916908373ffffffffffffffffffffffffffffffffffffffff16021790555081600460006101000a81548173ffffffffffffffffffffffffffffffffffffffff021916908373ffffffffffffffffffffffffffffffffffffffff16021790555080600460146101000a81548162ffffff021916908360e81c02179055505050505062000624565b600033905090565b60008060009054906101000a900473ffffffffffffffffffffffffffffffffffffffff169050816000806101000a81548173ffffffffffffffffffffffffffffffffffffffff021916908373ffffffffffffffffffffffffffffffffffffffff1602179055508173ffffffffffffffffffffffffffffffffffffffff168173ffffffffffffffffffffffffffffffffffffffff167f8be0079c531659141344cd1fd0a4f28419497f9722a3daafe3b4186f6b6457e060405160405180910390a35050565b600080fd5b600073ffffffffffffffffffffffffffffffffffffffff82169050919050565b6000620003b68262000389565b9050919050565b620003c881620003a9565b8114620003d457600080fd5b50565b600081519050620003e881620003bd565b92915050565b60007fffffff000000000000000000000000000000000000000000000000000000000082169050919050565b6200042581620003ee565b81146200043157600080fd5b50565b60008151905062000445816200041a565b92915050565b6000806000806080858703121562000468576200046762000384565b5b60006200047887828801620003d7565b94505060206200048b87828801620003d7565b93505060406200049e87828801620003d7565b9250506060620004b18782880162000434565b91505092959194509250565b600082825260208201905092915050565b7f555344433d300000000000000000000000000000000000000000000000000000600082015250565b600062000506600683620004bd565b91506200051382620004ce565b602082019050919050565b600060208201905081810360008301526200053981620004f7565b9050919050565b7f77617270506f7274616c3d300000000000000000000000000000000000000000600082015250565b600062000578600c83620004bd565b9150620005858262000540565b602082019050919050565b60006020820190508181036000830152620005ab8162000569565b9050919050565b7f7061796f75743d30000000000000000000000000000000000000000000000000600082015250565b6000620005ea600883620004bd565b9150620005f782620005b2565b602082019050919050565b600060208201905081810360008301526200061d81620005db565b9050919050565b612aa080620006346000396000f3fe6080604052600436106100f35760003560e01c80635c975abb1161008a5780638da5cb5b116100595780638da5cb5b146102d5578063cb17c50614610300578063ead9fcb31461031c578063f2fde38b14610347576100f3565b80635c975abb146102535780636f71a6931461027e578063715018a6146102a75780638456cb59146102be576100f3565b80633f4ba83a116100c65780633f4ba83a146101bf57806341d02437146101d6578063574632fc146101ff5780635b8d02d714610228576100f3565b806302d45457146100f85780631c6ffa46146101235780632dfdf0b51461014e5780633d4dff7b14610179575b600080fd5b34801561010457600080fd5b5061010d610370565b60405161011a919061187c565b60405180910390f35b34801561012f57600080fd5b50610138610396565b60405161014591906118d2565b60405180910390f35b34801561015a57600080fd5b506101636103a9565b6040516101709190611906565b60405180910390f35b34801561018557600080fd5b506101a0600480360381019061019b9190611961565b6103af565b6040516101b69a999897969594939291906119b8565b60405180910390f35b3480156101cb57600080fd5b506101d4610430565b005b3480156101e257600080fd5b506101fd60048036038101906101f89190611a80565b610442565b005b34801561020b57600080fd5b5061022660048036038101906102219190611b12565b61046a565b005b34801561023457600080fd5b5061023d610a42565b60405161024a919061187c565b60405180910390f35b34801561025f57600080fd5b50610268610a68565b6040516102759190611b9a565b60405180910390f35b34801561028a57600080fd5b506102a560048036038101906102a09190611be1565b610a7e565b005b3480156102b357600080fd5b506102bc610da6565b005b3480156102ca57600080fd5b506102d3610dba565b005b3480156102e157600080fd5b506102ea610dcc565b6040516102f7919061187c565b60405180910390f35b61031a60048036038101906103159190611c4d565b610df5565b005b34801561032857600080fd5b50610331611498565b60405161033e919061187c565b60405180910390f35b34801561035357600080fd5b5061036e60048036038101906103699190611d03565b6114be565b005b600260009054906101000a900473ffffffffffffffffffffffffffffffffffffffff1681565b600460149054906101000a900460e81b81565b60075481565b60066020528060005260406000206000915090508060000160009054906101000a900473ffffffffffffffffffffffffffffffffffffffff16908060010154908060020154908060030154908060040154908060050154908060060154908060070154908060080154908060090160009054906101000a900460ff1690508a565b610438611541565b6104406115bf565b565b61044a611541565b80600460146101000a81548162ffffff021916908360e81c021790555050565b610472611621565b61047a61166b565b600360009054906101000a900473ffffffffffffffffffffffffffffffffffffffff1673ffffffffffffffffffffffffffffffffffffffff163373ffffffffffffffffffffffffffffffffffffffff161461050a576040517f08c379a000000000000000000000000000000000000000000000000000000000815260040161050190611d8d565b60405180910390fd5b600460149054906101000a900460e81b7cffffffffffffffffffffffffffffffffffffffffffffffffffffffffff1916847cffffffffffffffffffffffffffffffffffffffffffffffffffffffffff19161461059b576040517f08c379a000000000000000000000000000000000000000000000000000000000815260040161059290611df9565b60405180910390fd5b600084866040516020016105b0929190611e5b565b6040516020818303038152906040528051906020012090506005600082815260200190815260200160002060009054906101000a900460ff1615610629576040517f08c379a000000000000000000000000000000000000000000000000000000000815260040161062090611ed3565b60405180910390fd5b60016005600083815260200190815260200160002060006101000a81548160ff021916908315150217905550600383839050101561069c576040517f08c379a000000000000000000000000000000000000000000000000000000000815260040161069390611f3f565b60405180910390fd5b6000838360008181106106b2576106b1611f5f565b5b9050602002013590506000848460018181106106d1576106d0611f5f565b5b9050602002013560001c90506000858560028181106106f3576106f2611f5f565b5b9050602002013560001c905060006006600085815260200190815260200160002090506000801b81600201540361075f576040517f08c379a000000000000000000000000000000000000000000000000000000000815260040161075690611fda565b60405180910390fd5b8060090160009054906101000a900460ff16156107b1576040517f08c379a00000000000000000000000000000000000000000000000000000000081526004016107a890612046565b60405180910390fd5b806004015488146107f7576040517f08c379a00000000000000000000000000000000000000000000000000000000081526004016107ee906120b2565b60405180910390fd5b806006015483111561083e576040517f08c379a00000000000000000000000000000000000000000000000000000000081526004016108359061211e565b60405180910390fd5b6001821115610882576040517f08c379a00000000000000000000000000000000000000000000000000000000081526004016108799061218a565b60405180910390fd5b60018160090160006101000a81548160ff0219169083151502179055506000600183146108d3578160000160009054906101000a900473ffffffffffffffffffffffffffffffffffffffff166108f7565b600460009054906101000a900473ffffffffffffffffffffffffffffffffffffffff165b90506000600260009054906101000a900473ffffffffffffffffffffffffffffffffffffffff1673ffffffffffffffffffffffffffffffffffffffff1663a9059cbb83876040518363ffffffff1660e01b81526004016109589291906121aa565b6020604051808303816000875af1158015610977573d6000803e3d6000fd5b505050506040513d601f19601f8201168201806040525081019061099b91906121ff565b9050806109dd576040517f08c379a00000000000000000000000000000000000000000000000000000000081526004016109d490612278565b60405180910390fd5b8173ffffffffffffffffffffffffffffffffffffffff16867fced947a3736f960c9c333b4be6c917fe4ce591af4c3650f07f42a833e8ff549487604051610a249190611906565b60405180910390a350505050505050610a3b6116ba565b5050505050565b600460009054906101000a900473ffffffffffffffffffffffffffffffffffffffff1681565b60008060149054906101000a900460ff16905090565b610a86611541565b610a8e611621565b610a9661166b565b6000801b8203610adb576040517f08c379a0000000000000000000000000000000000000000000000000000000008152600401610ad2906122e4565b60405180910390fd5b600073ffffffffffffffffffffffffffffffffffffffff168173ffffffffffffffffffffffffffffffffffffffff1603610b4a576040517f08c379a0000000000000000000000000000000000000000000000000000000008152600401610b4190612350565b60405180910390fd5b60006006600084815260200190815260200160002090506000801b816002015403610baa576040517f08c379a0000000000000000000000000000000000000000000000000000000008152600401610ba190611fda565b60405180910390fd5b8060090160009054906101000a900460ff1615610bfc576040517f08c379a0000000000000000000000000000000000000000000000000000000008152600401610bf390612046565b60405180910390fd5b60018160090160006101000a81548160ff0219169083151502179055506000600260009054906101000a900473ffffffffffffffffffffffffffffffffffffffff1673ffffffffffffffffffffffffffffffffffffffff1663a9059cbb8484600601546040518363ffffffff1660e01b8152600401610c7c9291906121aa565b6020604051808303816000875af1158015610c9b573d6000803e3d6000fd5b505050506040513d601f19601f82011682018060405250810190610cbf91906121ff565b905080610d01576040517f08c379a0000000000000000000000000000000000000000000000000000000008152600401610cf890612278565b60405180910390fd5b8273ffffffffffffffffffffffffffffffffffffffff16847f14a15bd518fc2b34036fcbfbc775f9577a57552aba076c87f1480c0a7b95428760405160405180910390a38273ffffffffffffffffffffffffffffffffffffffff16847fced947a3736f960c9c333b4be6c917fe4ce591af4c3650f07f42a833e8ff54948460060154604051610d909190611906565b60405180910390a35050610da26116ba565b5050565b610dae611541565b610db860006116c3565b565b610dc2611541565b610dca611787565b565b60008060009054906101000a900473ffffffffffffffffffffffffffffffffffffffff16905090565b610dfd611621565b610e0561166b565b6000600360009054906101000a900473ffffffffffffffffffffffffffffffffffffffff1673ffffffffffffffffffffffffffffffffffffffff166379c06b8b6040518163ffffffff1660e01b8152600401602060405180830381865afa158015610e74573d6000803e3d6000fd5b505050506040513d601f19601f82011682018060405250810190610e989190612385565b9050803414610edc576040517f08c379a0000000000000000000000000000000000000000000000000000000008152600401610ed3906123fe565b60405180910390fd5b6000801b8803610f21576040517f08c379a0000000000000000000000000000000000000000000000000000000008152600401610f18906122e4565b60405180910390fd5b6000801b8703610f66576040517f08c379a0000000000000000000000000000000000000000000000000000000008152600401610f5d9061246a565b60405180910390fd5b6000801b8603610fab576040517f08c379a0000000000000000000000000000000000000000000000000000000008152600401610fa2906124d6565b60405180910390fd5b60008411610fee576040517f08c379a0000000000000000000000000000000000000000000000000000000008152600401610fe590612542565b60405180910390fd5b6000801b600660008a81526020019081526020016000206002015414611049576040517f08c379a0000000000000000000000000000000000000000000000000000000008152600401611040906125ae565b60405180910390fd5b6000600260009054906101000a900473ffffffffffffffffffffffffffffffffffffffff1673ffffffffffffffffffffffffffffffffffffffff166323b872dd3330886040518463ffffffff1660e01b81526004016110aa939291906125ce565b6020604051808303816000875af11580156110c9573d6000803e3d6000fd5b505050506040513d601f19601f820116820180604052508101906110ed91906121ff565b90508061112f576040517f08c379a000000000000000000000000000000000000000000000000000000000815260040161112690612651565b60405180910390fd5b60016007600082825461114291906126a0565b925050819055506040518061014001604052803373ffffffffffffffffffffffffffffffffffffffff1681526020018b81526020018a815260200189815260200188815260200187815260200186815260200185815260200184815260200160001515815250600660008b815260200190815260200160002060008201518160000160006101000a81548173ffffffffffffffffffffffffffffffffffffffff021916908373ffffffffffffffffffffffffffffffffffffffff1602179055506020820151816001015560408201518160020155606082015181600301556080820151816004015560a0820151816005015560c0820151816006015560e0820151816007015561010082015181600801556101208201518160090160006101000a81548160ff0219169083151502179055509050503373ffffffffffffffffffffffffffffffffffffffff16897f468d947e1837d388553920dd0d68168309ca85d0821f171b24e67e8d50c702ed87346040516112c09291906126d4565b60405180910390a36000600467ffffffffffffffff8111156112e5576112e46126fd565b5b6040519080825280602002602001820160405280156113135781602001602082028036833780820191505090505b509050898160008151811061132b5761132a611f5f565b5b6020026020010181815250508560001b8160018151811061134f5761134e611f5f565b5b6020026020010181815250508460001b8160028151811061137357611372611f5f565b5b6020026020010181815250508a8160038151811061139457611393611f5f565b5b60200260200101818152505083816004815181106113b5576113b4611f5f565b5b60200260200101818152505086816005815181106113d6576113d5611f5f565b5b602002602001018181525050600360009054906101000a900473ffffffffffffffffffffffffffffffffffffffff1673ffffffffffffffffffffffffffffffffffffffff1663b3882f8984600460149054906101000a900460e81b8c856040518563ffffffff1660e01b8152600401611451939291906127ea565b6000604051808303818588803b15801561146a57600080fd5b505af115801561147e573d6000803e3d6000fd5b505050505050505061148e6116ba565b5050505050505050565b600360009054906101000a900473ffffffffffffffffffffffffffffffffffffffff1681565b6114c6611541565b600073ffffffffffffffffffffffffffffffffffffffff168173ffffffffffffffffffffffffffffffffffffffff1603611535576040517f08c379a000000000000000000000000000000000000000000000000000000000815260040161152c9061289a565b60405180910390fd5b61153e816116c3565b50565b6115496117ea565b73ffffffffffffffffffffffffffffffffffffffff16611567610dcc565b73ffffffffffffffffffffffffffffffffffffffff16146115bd576040517f08c379a00000000000000000000000000000000000000000000000000000000081526004016115b490612906565b60405180910390fd5b565b6115c76117f2565b60008060146101000a81548160ff0219169083151502179055507f5db9ee0a495bf2e6ff9c91a7834c1ba4fdd244a5e8aa4e537bd38aeae4b073aa61160a6117ea565b604051611617919061187c565b60405180910390a1565b611629610a68565b15611669576040517f08c379a000000000000000000000000000000000000000000000000000000000815260040161166090612972565b60405180910390fd5b565b6002600154036116b0576040517f08c379a00000000000000000000000000000000000000000000000000000000081526004016116a7906129de565b60405180910390fd5b6002600181905550565b60018081905550565b60008060009054906101000a900473ffffffffffffffffffffffffffffffffffffffff169050816000806101000a81548173ffffffffffffffffffffffffffffffffffffffff021916908373ffffffffffffffffffffffffffffffffffffffff1602179055508173ffffffffffffffffffffffffffffffffffffffff168173ffffffffffffffffffffffffffffffffffffffff167f8be0079c531659141344cd1fd0a4f28419497f9722a3daafe3b4186f6b6457e060405160405180910390a35050565b61178f611621565b6001600060146101000a81548160ff0219169083151502179055507f62e78cea01bee320cd4e420270b5ea74000d11b0c9f74754ebdbfc544b05a2586117d36117ea565b6040516117e0919061187c565b60405180910390a1565b600033905090565b6117fa610a68565b611839576040517f08c379a000000000000000000000000000000000000000000000000000000000815260040161183090612a4a565b60405180910390fd5b565b600073ffffffffffffffffffffffffffffffffffffffff82169050919050565b60006118668261183b565b9050919050565b6118768161185b565b82525050565b6000602082019050611891600083018461186d565b92915050565b60007fffffff000000000000000000000000000000000000000000000000000000000082169050919050565b6118cc81611897565b82525050565b60006020820190506118e760008301846118c3565b92915050565b6000819050919050565b611900816118ed565b82525050565b600060208201905061191b60008301846118f7565b92915050565b600080fd5b600080fd5b6000819050919050565b61193e8161192b565b811461194957600080fd5b50565b60008135905061195b81611935565b92915050565b60006020828403121561197757611976611921565b5b60006119858482850161194c565b91505092915050565b6119978161192b565b82525050565b60008115159050919050565b6119b28161199d565b82525050565b6000610140820190506119ce600083018d61186d565b6119db602083018c61198e565b6119e8604083018b61198e565b6119f5606083018a61198e565b611a02608083018961198e565b611a0f60a083018861198e565b611a1c60c08301876118f7565b611a2960e08301866118f7565b611a3761010083018561198e565b611a456101208301846119a9565b9b9a5050505050505050505050565b611a5d81611897565b8114611a6857600080fd5b50565b600081359050611a7a81611a54565b92915050565b600060208284031215611a9657611a95611921565b5b6000611aa484828501611a6b565b91505092915050565b600080fd5b600080fd5b600080fd5b60008083601f840112611ad257611ad1611aad565b5b8235905067ffffffffffffffff811115611aef57611aee611ab2565b5b602083019150836020820283011115611b0b57611b0a611ab7565b5b9250929050565b600080600080600060808688031215611b2e57611b2d611921565b5b6000611b3c8882890161194c565b9550506020611b4d88828901611a6b565b9450506040611b5e8882890161194c565b935050606086013567ffffffffffffffff811115611b7f57611b7e611926565b5b611b8b88828901611abc565b92509250509295509295909350565b6000602082019050611baf60008301846119a9565b92915050565b611bbe8161185b565b8114611bc957600080fd5b50565b600081359050611bdb81611bb5565b92915050565b60008060408385031215611bf857611bf7611921565b5b6000611c068582860161194c565b9250506020611c1785828601611bcc565b9150509250929050565b611c2a816118ed565b8114611c3557600080fd5b50565b600081359050611c4781611c21565b92915050565b600080600080600080600080610100898b031215611c6e57611c6d611921565b5b6000611c7c8b828c0161194c565b9850506020611c8d8b828c0161194c565b9750506040611c9e8b828c0161194c565b9650506060611caf8b828c0161194c565b9550506080611cc08b828c0161194c565b94505060a0611cd18b828c01611c38565b93505060c0611ce28b828c01611c38565b92505060e0611cf38b828c0161194c565b9150509295985092959890939650565b600060208284031215611d1957611d18611921565b5b6000611d2784828501611bcc565b91505092915050565b600082825260208201905092915050565b7f4e6f742077617270506f7274616c000000000000000000000000000000000000600082015250565b6000611d77600e83611d30565b9150611d8282611d41565b602082019050919050565b60006020820190508181036000830152611da681611d6a565b9050919050565b7f57726f6e6720736f7572636520636861696e0000000000000000000000000000600082015250565b6000611de3601283611d30565b9150611dee82611dad565b602082019050919050565b60006020820190508181036000830152611e1281611dd6565b9050919050565b6000819050919050565b611e34611e2f82611897565b611e19565b82525050565b6000819050919050565b611e55611e508261192b565b611e3a565b82525050565b6000611e678285611e23565b600382019150611e778284611e44565b6020820191508190509392505050565b7f5265706c61792064657465637465640000000000000000000000000000000000600082015250565b6000611ebd600f83611d30565b9150611ec882611e87565b602082019050919050565b60006020820190508181036000830152611eec81611eb0565b9050919050565b7f496e76616c696420636f6e74656e747300000000000000000000000000000000600082015250565b6000611f29601083611d30565b9150611f3482611ef3565b602082019050919050565b60006020820190508181036000830152611f5881611f1c565b9050919050565b7f4e487b7100000000000000000000000000000000000000000000000000000000600052603260045260246000fd5b7f556e6b6e6f776e207061796d656e744964000000000000000000000000000000600082015250565b6000611fc4601183611d30565b9150611fcf82611f8e565b602082019050919050565b60006020820190508181036000830152611ff381611fb7565b9050919050565b7f416c726561647920636f6d706c65746564000000000000000000000000000000600082015250565b6000612030601183611d30565b915061203b82611ffa565b602082019050919050565b6000602082019050818103600083015261205f81612023565b9050919050565b7f556e747275737465642070757a7a6c6500000000000000000000000000000000600082015250565b600061209c601083611d30565b91506120a782612066565b602082019050919050565b600060208201905081810360008301526120cb8161208f565b9050919050565b7f4f766572206465706f73697420616d6f756e7400000000000000000000000000600082015250565b6000612108601383611d30565b9150612113826120d2565b602082019050919050565b60006020820190508181036000830152612137816120fb565b9050919050565b7f706173734661696c206d7573742062652030206f722031000000000000000000600082015250565b6000612174601783611d30565b915061217f8261213e565b602082019050919050565b600060208201905081810360008301526121a381612167565b9050919050565b60006040820190506121bf600083018561186d565b6121cc60208301846118f7565b9392505050565b6121dc8161199d565b81146121e757600080fd5b50565b6000815190506121f9816121d3565b92915050565b60006020828403121561221557612214611921565b5b6000612223848285016121ea565b91505092915050565b7f7472616e73666572206661696c65640000000000000000000000000000000000600082015250565b6000612262600f83611d30565b915061226d8261222c565b602082019050919050565b6000602082019050818103600083015261229181612255565b9050919050565b7f7061796d656e7449643d30000000000000000000000000000000000000000000600082015250565b60006122ce600b83611d30565b91506122d982612298565b602082019050919050565b600060208201905081810360008301526122fd816122c1565b9050919050565b7f726563697069656e743d30000000000000000000000000000000000000000000600082015250565b600061233a600b83611d30565b915061234582612304565b602082019050919050565b600060208201905081810360008301526123698161232d565b9050919050565b60008151905061237f81611c21565b92915050565b60006020828403121561239b5761239a611921565b5b60006123a984828501612370565b91505092915050565b7f496e636f7272656374207761727020746f6c6c00000000000000000000000000600082015250565b60006123e8601383611d30565b91506123f3826123b2565b602082019050919050565b60006020820190508181036000830152612417816123db565b9050919050565b7f2164657374206272696467696e673d3000000000000000000000000000000000600082015250565b6000612454601083611d30565b915061245f8261241e565b602082019050919050565b6000602082019050818103600083015261248381612447565b9050919050565b7f21747275737465643d3000000000000000000000000000000000000000000000600082015250565b60006124c0600a83611d30565b91506124cb8261248a565b602082019050919050565b600060208201905081810360008301526124ef816124b3565b9050919050565b7f616d6f756e743d30000000000000000000000000000000000000000000000000600082015250565b600061252c600883611d30565b9150612537826124f6565b602082019050919050565b6000602082019050818103600083015261255b8161251f565b9050919050565b7f7061796d656e7449642075736564000000000000000000000000000000000000600082015250565b6000612598600e83611d30565b91506125a382612562565b602082019050919050565b600060208201905081810360008301526125c78161258b565b9050919050565b60006060820190506125e3600083018661186d565b6125f0602083018561186d565b6125fd60408301846118f7565b949350505050565b7f7472616e7366657246726f6d206661696c656400000000000000000000000000600082015250565b600061263b601383611d30565b915061264682612605565b602082019050919050565b6000602082019050818103600083015261266a8161262e565b9050919050565b7f4e487b7100000000000000000000000000000000000000000000000000000000600052601160045260246000fd5b60006126ab826118ed565b91506126b6836118ed565b92508282019050808211156126ce576126cd612671565b5b92915050565b60006040820190506126e960008301856118f7565b6126f660208301846118f7565b9392505050565b7f4e487b7100000000000000000000000000000000000000000000000000000000600052604160045260246000fd5b600081519050919050565b600082825260208201905092915050565b6000819050602082019050919050565b6127618161192b565b82525050565b60006127738383612758565b60208301905092915050565b6000602082019050919050565b60006127978261272c565b6127a18185612737565b93506127ac83612748565b8060005b838110156127dd5781516127c48882612767565b97506127cf8361277f565b9250506001810190506127b0565b5085935050505092915050565b60006060820190506127ff60008301866118c3565b61280c602083018561198e565b818103604083015261281e818461278c565b9050949350505050565b7f4f776e61626c653a206e6577206f776e657220697320746865207a65726f206160008201527f6464726573730000000000000000000000000000000000000000000000000000602082015250565b6000612884602683611d30565b915061288f82612828565b604082019050919050565b600060208201905081810360008301526128b381612877565b9050919050565b7f4f776e61626c653a2063616c6c6572206973206e6f7420746865206f776e6572600082015250565b60006128f0602083611d30565b91506128fb826128ba565b602082019050919050565b6000602082019050818103600083015261291f816128e3565b9050919050565b7f5061757361626c653a2070617573656400000000000000000000000000000000600082015250565b600061295c601083611d30565b915061296782612926565b602082019050919050565b6000602082019050818103600083015261298b8161294f565b9050919050565b7f5265656e7472616e637947756172643a207265656e7472616e742063616c6c00600082015250565b60006129c8601f83611d30565b91506129d382612992565b602082019050919050565b600060208201905081810360008301526129f7816129bb565b9050919050565b7f5061757361626c653a206e6f7420706175736564000000000000000000000000600082015250565b6000612a34601483611d30565b9150612a3f826129fe565b602082019050919050565b60006020820190508181036000830152612a6381612a27565b905091905056fea264697066735822122077f4ea5e3b1cb8aa9ae0bf98604af0a43e67093b895553292105a589bbde5a5864736f6c63430008160033",
  "linkReferences": {},
  "deployedLinkReferences": {}
}