{
  "_format": "hh-sol-artifact-1",
  "contractName": "EscrowVault",
  "sourceName": "contracts/EscrowVault.sol",
  "abi": [
    {
      "inputs": [
        {
          "internalType": "address",
          "name": "_usdc",
          "type": "address"
        },
        {
          "internalType": "address",
          "name": "_warpPortal",
          "type": "address"
        },
        {
          "internalType": "address",
          "name": "_payoutAddr",
          "type": "address"
        },
        {
          "internalType": "bytes3",
          "name": "_sourceChain",
          "type": "bytes3"
        }
      ],
      "stateMutability": "nonpayable",
      "type": "constructor"
    },
    {
      "anonymous": false,
      "inputs": [
        {
          "indexed": true,
          "internalType": "address",
          "name": "previousOwner",
          "type": "address"
        },
        {
          "indexed": true,
          "internalType": "address",
          "name": "newOwner",
          "type": "address"
        }
      ],
      "name": "OwnershipTransferred",
      "type": "event"
    },
    {
      "anonymous": false,
      "inputs": [
        {
          "indexed": false,
          "internalType": "address",
          "name": "account",
          "type": "address"
        }
      ],
      "name": "Paused",
      "type": "event"
    },
    {
      "anonymous": false,
      "inputs": [
        {
          "indexed": true,
          "internalType": "bytes32",
          "name": "paymentId",
          "type": "bytes32"
        },
        {
          "indexed": true,
          "internalType": "address",
          "name": "user",
          "type": "address"
        },
        {
          "indexed": false,
          "internalType": "uint256",
          "name": "amountUSDC",
          "type": "uint256"
        },
        {
          "indexed": false,
          "internalType": "uint256",
          "name": "tollPaid",
          "type": "uint256"
        }
      ],
      "name": "PaymentDeposited",
      "type": "event"
    },
    {
      "anonymous": false,
      "inputs": [
        {
          "indexed": true,
          "internalType": "bytes32",
          "name": "paymentId",
          "type": "bytes32"
        },
        {
          "indexed": false,
          "internalType": "uint256",
          "name": "amountUSDC",
          "type": "uint256"
        },
        {
          "indexed": true,
          "internalType": "address",
          "name": "recipient",
          "type": "address"
        }
      ],
      "name": "PayoutCompleted",
      "type": "event"
    },
    {
      "anonymous": false,
      "inputs": [
        {
          "indexed": true,
          "internalType": "bytes32",
          "name": "paymentId",
          "type": "bytes32"
        },
        {
          "indexed": true,
          "internalType": "address",
          "name": "recipient",
          "type": "address"
        }
      ],
      "name": "PayoutSetByAdmin",
      "type": "event"
    },
    {
      "anonymous": false,
      "inputs": [
        {
          "indexed": false,
          "internalType": "address",
          "name": "account",
          "type": "address"
        }
      ],
      "name": "Unpaused",
      "type": "event"
    },
    {
      "inputs": [],
      "name": "depositCount",
      "outputs": [
        {
          "internalType": "uint256",
          "name": "",
          "type": "uint256"
        }
      ],
      "stateMutability": "view",
      "type": "function"
    },
    {
      "inputs": [
        {
          "internalType": "bytes32",
          "name": "nftId",
          "type": "bytes32"
        },
        {
          "internalType": "bytes32",
          "name": "paymentId",
          "type": "bytes32"
        },
        {
          "internalType": "bytes32",
          "name": "bridgingPuzzle",
          "type": "bytes32"
        },
        {
          "internalType": "bytes32",
          "name": "trustedPuzzle",
          "type": "bytes32"
        },
        {
          "internalType": "bytes32",
          "name": "destinationPuzzle",
          "type": "bytes32"
        },
        {
          "internalType": "uint256",
          "name": "amountUSDC",
          "type": "uint256"
        },
        {
          "internalType": "uint256",
          "name": "dacCount",
          "type": "uint256"
        }
      ],
      "name": "depositPayment",
      "outputs": [],
      "stateMutability": "payable",
      "type": "function"
    },
    {
      "inputs": [
        {
          "internalType": "bytes32",
          "name": "",
          "type": "bytes32"
        }
      ],
      "name": "deposits",
      "outputs": [
        {
          "internalType": "address",
          "name": "user",
          "type": "address"
        },
        {
          "internalType": "bytes32",
          "name": "nftId",
          "type": "bytes32"
        },
        {
          "internalType": "bytes32",
          "name": "paymentId",
          "type": "bytes32"
        },
        {
          "internalType": "bytes32",
          "name": "bridgingPuzzle",
          "type": "bytes32"
        },
        {
          "internalType": "bytes32",
          "name": "trustedPuzzle",
          "type": "bytes32"
        },
        {
          "internalType": "bytes32",
          "name": "destinationPuzzle",
          "type": "bytes32"
        },
        {
          "internalType": "uint256",
          "name": "amountUSDC",
          "type": "uint256"
        },
        {
          "internalType": "uint256",
          "name": "dacCount",
          "type": "uint256"
        },
        {
          "internalType": "bool",
          "name": "completed",
          "type": "bool"
        }
      ],
      "stateMutability": "view",
      "type": "function"
    },
    {
      "inputs": [],
      "name": "owner",
      "outputs": [
        {
          "internalType": "address",
          "name": "",
          "type": "address"
        }
      ],
      "stateMutability": "view",
      "type": "function"
    },
    {
      "inputs": [],
      "name": "pause",
      "outputs": [],
      "stateMutability": "nonpayable",
      "type": "function"
    },
    {
      "inputs": [],
      "name": "paused",
      "outputs": [
        {
          "internalType": "bool",
          "name": "",
          "type": "bool"
        }
      ],
      "stateMutability": "view",
      "type": "function"
    },
    {
      "inputs": [],
      "name": "payoutAddress",
      "outputs": [
        {
          "internalType": "address",
          "name": "",
          "type": "address"
        }
      ],
      "stateMutability": "view",
      "type": "function"
    },
    {
      "inputs": [
        {
          "internalType": "bytes32",
          "name": "_nonce",
          "type": "bytes32"
        },
        {
          "internalType": "bytes3",
          "name": "_source_chain",
          "type": "bytes3"
        },
        {
          "internalType": "bytes32",
          "name": "_source",
          "type": "bytes32"
        },
        {
          "internalType": "bytes32[]",
          "name": "_contents",
          "type": "bytes32[]"
        }
      ],
      "name": "receiveMessage",
      "outputs": [],
      "stateMutability": "nonpayable",
      "type": "function"
    },
    {
      "inputs": [],
      "name": "renounceOwnership",
      "outputs": [],
      "stateMutability": "nonpayable",
      "type": "function"
    },
    {
      "inputs": [
        {
          "internalType": "bytes32",
          "name": "paymentId",
          "type": "bytes32"
        },
        {
          "internalType": "address",
          "name": "recipient",
          "type": "address"
        }
      ],
      "name": "setPayout",
      "outputs": [],
      "stateMutability": "nonpayable",
      "type": "function"
    },
    {
      "inputs": [
        {
          "internalType": "bytes3",
          "name": "_sourceChain",
          "type": "bytes3"
        }
      ],
      "name": "setSourceChain",
      "outputs": [],
      "stateMutability": "nonpayable",
      "type": "function"
    },
    {
      "inputs": [],
      "name": "sourceChain",
      "outputs": [
        {
          "internalType": "bytes3",
          "name": "",
          "type": "bytes3"
        }
      ],
      "stateMutability": "view",
      "type": "function"
    },
    {
      "inputs": [
        {
          "internalType": "address",
          "name": "newOwner",
          "type": "address"
        }
      ],
      "name": "transferOwnership",
      "outputs": [],
      "stateMutability": "nonpayable",
      "type": "function"
    },
    {
      "inputs": [],
      "name": "unpause",
      "outputs": [],
      "stateMutability": "nonpayable",
      "type": "function"
    },
    {
      "inputs": [],
      "name": "usdcAddress",
      "outputs": [
        {
          "internalType": "address",
          "name": "",
          "type": "address"
        }
      ],
      "stateMutability": "view",
      "type": "function"
    },
    {
      "inputs": [],
      "name": "warpPortal",
      "outputs": [
        {
          "internalType": "address",
          "name": "",
          "type": "address"
        }
      ],
      "stateMutability": "view",
      "type": "function"
    }
  ],
  "bytecode": "0x60806040523480156200001157600080fd5b5060405162002fd838038062002fd883398181016040528101906200003791906200044b565b620000576200004b620002b860201b60201c565b620002c060201b60201c565b60008060146101000a81548160ff02191690831515021790555060018081905550600073ffffffffffffffffffffffffffffffffffffffff168473ffffffffffffffffffffffffffffffffffffffff1603620000ea576040517f08c379a0000000000000000000000000000000000000000000000000000000008152600401620000e1906200051e565b60405180910390fd5b600073ffffffffffffffffffffffffffffffffffffffff168373ffffffffffffffffffffffffffffffffffffffff16036200015c576040517f08c379a0000000000000000000000000000000000000000000000000000000008152600401620001539062000590565b60405180910390fd5b600073ffffffffffffffffffffffffffffffffffffffff168273ffffffffffffffffffffffffffffffffffffffff1603620001ce576040517f08c379a0000000000000000000000000000000000000000000000000000000008152600401620001c59062000602565b60405180910390fd5b83600260006101000a81548173ffffffffffffffffffffffffffffffffffffffff021916908373ffffffffffffffffffffffffffffffffffffffff16021790555082600360006101000a81548173ffffffffffffffffffffffffffffffffffffffff021916908373ffffffffffffffffffffffffffffffffffffffff16021790555081600460006101000a81548173ffffffffffffffffffffffffffffffffffffffff021916908373ffffffffffffffffffffffffffffffffffffffff16021790555080600460146101000a81548162ffffff021916908360e81c02179055505050505062000624565b600033905090565b60008060009054906101000a900473ffffffffffffffffffffffffffffffffffffffff169050816000806101000a81548173ffffffffffffffffffffffffffffffffffffffff021916908373ffffffffffffffffffffffffffffffffffffffff1602179055508173ffffffffffffffffffffffffffffffffffffffff168173ffffffffffffffffffffffffffffffffffffffff167f8be0079c531659141344cd1fd0a4f28419497f9722a3daafe3b4186f6b6457e060405160405180910390a35050565b600080fd5b600073ffffffffffffffffffffffffffffffffffffffff82169050919050565b6000620003b68262000389565b9050919050565b620003c881620003a9565b8114620003d457600080fd5b50565b600081519050620003e881620003bd565b92915050565b60007fffffff000000000000000000000000000000000000000000000000000000000082169050919050565b6200042581620003ee565b81146200043157600080fd5b50565b60008151905062000445816200041a565b92915050565b6000806000806080858703121562000468576200046762000384565b5b60006200047887828801620003d7565b94505060206200048b87828801620003d7565b93505060406200049e87828801620003d7565b9250506060620004b18782880162000434565b91505092959194509250565b600082825260208201905092915050565b7f555344433d300000000000000000000000000000000000000000000000000000600082015250565b600062000506600683620004bd565b91506200051382620004ce565b602082019050919050565b600060208201905081810360008301526200053981620004f7565b9050919050565b7f77617270506f7274616c3d300000000000000000000000000000000000000000600082015250565b600062000578600c83620004bd565b9150620005858262000540565b602082019050919050565b60006020820190508181036000830152620005ab8162000569565b9050919050565b7f7061796f75743d30000000000000000000000000000000000000000000000000600082015250565b6000620005ea600883620004bd565b9150620005f782620005b2565b602082019050919050565b600060208201905081810360008301526200061d81620005db565b9050919050565b6129a480620006346000396000f3fe6080604052600436106100f35760003560e01c80635c975abb1161008a5780638da5cb5b116100595780638da5cb5b146102d4578063bfb26e04146102ff578063ead9fcb31461031b578063f2fde38b14610346576100f3565b80635c975abb146102525780636f71a6931461027d578063715018a6146102a65780638456cb59146102bd576100f3565b80633f4ba83a116100c65780633f4ba83a146101be57806341d02437146101d5578063574632fc146101fe5780635b8d02d714610227576100f3565b806302d45457146100f85780631c6ffa46146101235780632dfdf0b51461014e5780633d4dff7b14610179575b600080fd5b34801561010457600080fd5b5061010d61036f565b60405161011a91906117a3565b60405180910390f35b34801561012f57600080fd5b50610138610395565b60405161014591906117f9565b60405180910390f35b34801561015a57600080fd5b506101636103a8565b604051610170919061182d565b60405180910390f35b34801561018557600080fd5b506101a0600480360381019061019b9190611888565b6103ae565b6040516101b5999897969594939291906118df565b60405180910390f35b3480156101ca57600080fd5b506101d3610429565b005b3480156101e157600080fd5b506101fc60048036038101906101f79190611998565b61043b565b005b34801561020a57600080fd5b5061022560048036038101906102209190611a2a565b610463565b005b34801561023357600080fd5b5061023c6109bd565b60405161024991906117a3565b60405180910390f35b34801561025e57600080fd5b506102676109e3565b6040516102749190611ab2565b60405180910390f35b34801561028957600080fd5b506102a4600480360381019061029f9190611af9565b6109f9565b005b3480156102b257600080fd5b506102bb610d21565b005b3480156102c957600080fd5b506102d2610d35565b005b3480156102e057600080fd5b506102e9610d47565b6040516102f691906117a3565b60405180910390f35b61031960048036038101906103149190611b65565b610d70565b005b34801561032757600080fd5b506103306113bf565b60405161033d91906117a3565b60405180910390f35b34801561035257600080fd5b5061036d60048036038101906103689190611c07565b6113e5565b005b600260009054906101000a900473ffffffffffffffffffffffffffffffffffffffff1681565b600460149054906101000a900460e81b81565b60075481565b60066020528060005260406000206000915090508060000160009054906101000a900473ffffffffffffffffffffffffffffffffffffffff16908060010154908060020154908060030154908060040154908060050154908060060154908060070154908060080160009054906101000a900460ff16905089565b610431611468565b6104396114e6565b565b610443611468565b80600460146101000a81548162ffffff021916908360e81c021790555050565b61046b611548565b610473611592565b600360009054906101000a900473ffffffffffffffffffffffffffffffffffffffff1673ffffffffffffffffffffffffffffffffffffffff163373ffffffffffffffffffffffffffffffffffffffff1614610503576040517f08c379a00000000000000000000000000000000000000000000000000000000081526004016104fa90611c91565b60405180910390fd5b600460149054906101000a900460e81b7cffffffffffffffffffffffffffffffffffffffffffffffffffffffffff1916847cffffffffffffffffffffffffffffffffffffffffffffffffffffffffff191614610594576040517f08c379a000000000000000000000000000000000000000000000000000000000815260040161058b90611cfd565b60405180910390fd5b600084866040516020016105a9929190611d5f565b6040516020818303038152906040528051906020012090506005600082815260200190815260200160002060009054906101000a900460ff1615610622576040517f08c379a000000000000000000000000000000000000000000000000000000000815260040161061990611dd7565b60405180910390fd5b60016005600083815260200190815260200160002060006101000a81548160ff0219169083151502179055506002838390501015610695576040517f08c379a000000000000000000000000000000000000000000000000000000000815260040161068c90611e43565b60405180910390fd5b6000838360008181106106ab576106aa611e63565b5b9050602002013590506000848460018181106106ca576106c9611e63565b5b9050602002013560001c905060006006600084815260200190815260200160002090506000801b816002015403610736576040517f08c379a000000000000000000000000000000000000000000000000000000000815260040161072d90611ede565b60405180910390fd5b8060080160009054906101000a900460ff1615610788576040517f08c379a000000000000000000000000000000000000000000000000000000000815260040161077f90611f4a565b60405180910390fd5b806004015487146107ce576040517f08c379a00000000000000000000000000000000000000000000000000000000081526004016107c590611fb6565b60405180910390fd5b8060060154821115610815576040517f08c379a000000000000000000000000000000000000000000000000000000000815260040161080c90612022565b60405180910390fd5b60018160080160006101000a81548160ff0219169083151502179055506000600260009054906101000a900473ffffffffffffffffffffffffffffffffffffffff1673ffffffffffffffffffffffffffffffffffffffff1663a9059cbb600460009054906101000a900473ffffffffffffffffffffffffffffffffffffffff16856040518363ffffffff1660e01b81526004016108b3929190612042565b6020604051808303816000875af11580156108d2573d6000803e3d6000fd5b505050506040513d601f19601f820116820180604052508101906108f69190612097565b905080610938576040517f08c379a000000000000000000000000000000000000000000000000000000000815260040161092f90612110565b60405180910390fd5b600460009054906101000a900473ffffffffffffffffffffffffffffffffffffffff1673ffffffffffffffffffffffffffffffffffffffff16847fced947a3736f960c9c333b4be6c917fe4ce591af4c3650f07f42a833e8ff5494856040516109a1919061182d565b60405180910390a350505050506109b66115e1565b5050505050565b600460009054906101000a900473ffffffffffffffffffffffffffffffffffffffff1681565b60008060149054906101000a900460ff16905090565b610a01611468565b610a09611548565b610a11611592565b6000801b8203610a56576040517f08c379a0000000000000000000000000000000000000000000000000000000008152600401610a4d9061217c565b60405180910390fd5b600073ffffffffffffffffffffffffffffffffffffffff168173ffffffffffffffffffffffffffffffffffffffff1603610ac5576040517f08c379a0000000000000000000000000000000000000000000000000000000008152600401610abc906121e8565b60405180910390fd5b60006006600084815260200190815260200160002090506000801b816002015403610b25576040517f08c379a0000000000000000000000000000000000000000000000000000000008152600401610b1c90611ede565b60405180910390fd5b8060080160009054906101000a900460ff1615610b77576040517f08c379a0000000000000000000000000000000000000000000000000000000008152600401610b6e90611f4a565b60405180910390fd5b60018160080160006101000a81548160ff0219169083151502179055506000600260009054906101000a900473ffffffffffffffffffffffffffffffffffffffff1673ffffffffffffffffffffffffffffffffffffffff1663a9059cbb8484600601546040518363ffffffff1660e01b8152600401610bf7929190612042565b6020604051808303816000875af1158015610c16573d6000803e3d6000fd5b505050506040513d601f19601f82011682018060405250810190610c3a9190612097565b905080610c7c576040517f08c379a0000000000000000000000000000000000000000000000000000000008152600401610c7390612254565b60405180910390fd5b8273ffffffffffffffffffffffffffffffffffffffff16847f14a15bd518fc2b34036fcbfbc775f9577a57552aba076c87f1480c0a7b95428760405160405180910390a38273ffffffffffffffffffffffffffffffffffffffff16847fced947a3736f960c9c333b4be6c917fe4ce591af4c3650f07f42a833e8ff54948460060154604051610d0b919061182d565b60405180910390a35050610d1d6115e1565b5050565b610d29611468565b610d3360006115ea565b565b610d3d611468565b610d456116ae565b565b60008060009054906101000a900473ffffffffffffffffffffffffffffffffffffffff16905090565b610d78611548565b610d80611592565b6000600360009054906101000a900473ffffffffffffffffffffffffffffffffffffffff1673ffffffffffffffffffffffffffffffffffffffff166379c06b8b6040518163ffffffff1660e01b8152600401602060405180830381865afa158015610def573d6000803e3d6000fd5b505050506040513d601f19601f82011682018060405250810190610e139190612289565b9050803414610e57576040517f08c379a0000000000000000000000000000000000000000000000000000000008152600401610e4e90612302565b60405180910390fd5b6000801b8703610e9c576040517f08c379a0000000000000000000000000000000000000000000000000000000008152600401610e939061217c565b60405180910390fd5b6000801b8603610ee1576040517f08c379a0000000000000000000000000000000000000000000000000000000008152600401610ed89061236e565b60405180910390fd5b6000801b8503610f26576040517f08c379a0000000000000000000000000000000000000000000000000000000008152600401610f1d906123da565b60405180910390fd5b60008311610f69576040517f08c379a0000000000000000000000000000000000000000000000000000000008152600401610f6090612446565b60405180910390fd5b6000801b600660008981526020019081526020016000206002015414610fc4576040517f08c379a0000000000000000000000000000000000000000000000000000000008152600401610fbb906124b2565b60405180910390fd5b6000600260009054906101000a900473ffffffffffffffffffffffffffffffffffffffff1673ffffffffffffffffffffffffffffffffffffffff166323b872dd3330876040518463ffffffff1660e01b8152600401611025939291906124d2565b6020604051808303816000875af1158015611044573d6000803e3d6000fd5b505050506040513d601f19601f820116820180604052508101906110689190612097565b9050806110aa576040517f08c379a00000000000000000000000000000000000000000000000000000000081526004016110a190612555565b60405180910390fd5b6001600760008282546110bd91906125a4565b925050819055506040518061012001604052803373ffffffffffffffffffffffffffffffffffffffff1681526020018a815260200189815260200188815260200187815260200186815260200185815260200184815260200160001515815250600660008a815260200190815260200160002060008201518160000160006101000a81548173ffffffffffffffffffffffffffffffffffffffff021916908373ffffffffffffffffffffffffffffffffffffffff1602179055506020820151816001015560408201518160020155606082015181600301556080820151816004015560a0820151816005015560c0820151816006015560e082015181600701556101008201518160080160006101000a81548160ff0219169083151502179055509050503373ffffffffffffffffffffffffffffffffffffffff16887f468d947e1837d388553920dd0d68168309ca85d0821f171b24e67e8d50c702ed863460405161122a9291906125d8565b60405180910390a36000600467ffffffffffffffff81111561124f5761124e612601565b5b60405190808252806020026020018201604052801561127d5781602001602082028036833780820191505090505b509050888160008151811061129557611294611e63565b5b6020026020010181815250508460001b816001815181106112b9576112b8611e63565b5b6020026020010181815250508360001b816002815181106112dd576112dc611e63565b5b60200260200101818152505085816003815181106112fe576112fd611e63565b5b602002602001018181525050600360009054906101000a900473ffffffffffffffffffffffffffffffffffffffff1673ffffffffffffffffffffffffffffffffffffffff1663b3882f8984600460149054906101000a900460e81b8b856040518563ffffffff1660e01b8152600401611379939291906126ee565b6000604051808303818588803b15801561139257600080fd5b505af11580156113a6573d6000803e3d6000fd5b50505050505050506113b66115e1565b50505050505050565b600360009054906101000a900473ffffffffffffffffffffffffffffffffffffffff1681565b6113ed611468565b600073ffffffffffffffffffffffffffffffffffffffff168173ffffffffffffffffffffffffffffffffffffffff160361145c576040517f08c379a00000000000000000000000000000000000000000000000000000000081526004016114539061279e565b60405180910390fd5b611465816115ea565b50565b611470611711565b73ffffffffffffffffffffffffffffffffffffffff1661148e610d47565b73ffffffffffffffffffffffffffffffffffffffff16146114e4576040517f08c379a00000000000000000000000000000000000000000000000000000000081526004016114db9061280a565b60405180910390fd5b565b6114ee611719565b60008060146101000a81548160ff0219169083151502179055507f5db9ee0a495bf2e6ff9c91a7834c1ba4fdd244a5e8aa4e537bd38aeae4b073aa611531611711565b60405161153e91906117a3565b60405180910390a1565b6115506109e3565b15611590576040517f08c379a000000000000000000000000000000000000000000000000000000000815260040161158790612876565b60405180910390fd5b565b6002600154036115d7576040517f08c379a00000000000000000000000000000000000000000000000000000000081526004016115ce906128e2565b60405180910390fd5b6002600181905550565b60018081905550565b60008060009054906101000a900473ffffffffffffffffffffffffffffffffffffffff169050816000806101000a81548173ffffffffffffffffffffffffffffffffffffffff021916908373ffffffffffffffffffffffffffffffffffffffff1602179055508173ffffffffffffffffffffffffffffffffffffffff168173ffffffffffffffffffffffffffffffffffffffff167f8be0079c531659141344cd1fd0a4f28419497f9722a3daafe3b4186f6b6457e060405160405180910390a35050565b6116b6611548565b6001600060146101000a81548160ff0219169083151502179055507f62e78cea01bee320cd4e420270b5ea74000d11b0c9f74754ebdbfc544b05a2586116fa611711565b60405161170791906117a3565b60405180910390a1565b600033905090565b6117216109e3565b611760576040517f08c379a00000000000000000000000000000000000000000000000000000000081526004016117579061294e565b60405180910390fd5b565b600073ffffffffffffffffffffffffffffffffffffffff82169050919050565b600061178d82611762565b9050919050565b61179d81611782565b82525050565b60006020820190506117b86000830184611794565b92915050565b60007fffffff000000000000000000000000000000000000000000000000000000000082169050919050565b6117f3816117be565b82525050565b600060208201905061180e60008301846117ea565b92915050565b6000819050919050565b61182781611814565b82525050565b6000602082019050611842600083018461181e565b92915050565b600080fd5b600080fd5b6000819050919050565b61186581611852565b811461187057600080fd5b50565b6000813590506118828161185c565b92915050565b60006020828403121561189e5761189d611848565b5b60006118ac84828501611873565b91505092915050565b6118be81611852565b82525050565b60008115159050919050565b6118d9816118c4565b82525050565b6000610120820190506118f5600083018c611794565b611902602083018b6118b5565b61190f604083018a6118b5565b61191c60608301896118b5565b61192960808301886118b5565b61193660a08301876118b5565b61194360c083018661181e565b61195060e083018561181e565b61195e6101008301846118d0565b9a9950505050505050505050565b611975816117be565b811461198057600080fd5b50565b6000813590506119928161196c565b92915050565b6000602082840312156119ae576119ad611848565b5b60006119bc84828501611983565b91505092915050565b600080fd5b600080fd5b600080fd5b60008083601f8401126119ea576119e96119c5565b5b8235905067ffffffffffffffff811115611a0757611a066119ca565b5b602083019150836020820283011115611a2357611a226119cf565b5b9250929050565b600080600080600060808688031215611a4657611a45611848565b5b6000611a5488828901611873565b9550506020611a6588828901611983565b9450506040611a7688828901611873565b935050606086013567ffffffffffffffff811115611a9757611a9661184d565b5b611aa3888289016119d4565b92509250509295509295909350565b6000602082019050611ac760008301846118d0565b92915050565b611ad681611782565b8114611ae157600080fd5b50565b600081359050611af381611acd565b92915050565b60008060408385031215611b1057611b0f611848565b5b6000611b1e85828601611873565b9250506020611b2f85828601611ae4565b9150509250929050565b611b4281611814565b8114611b4d57600080fd5b50565b600081359050611b5f81611b39565b92915050565b600080600080600080600060e0888a031215611b8457611b83611848565b5b6000611b928a828b01611873565b9750506020611ba38a828b01611873565b9650506040611bb48a828b01611873565b9550506060611bc58a828b01611873565b9450506080611bd68a828b01611873565b93505060a0611be78a828b01611b50565b92505060c0611bf88a828b01611b50565b91505092959891949750929550565b600060208284031215611c1d57611c1c611848565b5b6000611c2b84828501611ae4565b91505092915050565b600082825260208201905092915050565b7f4e6f742077617270506f7274616c000000000000000000000000000000000000600082015250565b6000611c7b600e83611c34565b9150611c8682611c45565b602082019050919050565b60006020820190508181036000830152611caa81611c6e565b9050919050565b7f57726f6e6720736f7572636520636861696e0000000000000000000000000000600082015250565b6000611ce7601283611c34565b9150611cf282611cb1565b602082019050919050565b60006020820190508181036000830152611d1681611cda565b9050919050565b6000819050919050565b611d38611d33826117be565b611d1d565b82525050565b6000819050919050565b611d59611d5482611852565b611d3e565b82525050565b6000611d6b8285611d27565b600382019150611d7b8284611d48565b6020820191508190509392505050565b7f5265706c61792064657465637465640000000000000000000000000000000000600082015250565b6000611dc1600f83611c34565b9150611dcc82611d8b565b602082019050919050565b60006020820190508181036000830152611df081611db4565b9050919050565b7f496e76616c696420636f6e74656e747300000000000000000000000000000000600082015250565b6000611e2d601083611c34565b9150611e3882611df7565b602082019050919050565b60006020820190508181036000830152611e5c81611e20565b9050919050565b7f4e487b7100000000000000000000000000000000000000000000000000000000600052603260045260246000fd5b7f556e6b6e6f776e207061796d656e744964000000000000000000000000000000600082015250565b6000611ec8601183611c34565b9150611ed382611e92565b602082019050919050565b60006020820190508181036000830152611ef781611ebb565b9050919050565b7f416c726561647920636f6d706c65746564000000000000000000000000000000600082015250565b6000611f34601183611c34565b9150611f3f82611efe565b602082019050919050565b60006020820190508181036000830152611f6381611f27565b9050919050565b7f556e747275737465642070757a7a6c6500000000000000000000000000000000600082015250565b6000611fa0601083611c34565b9150611fab82611f6a565b602082019050919050565b60006020820190508181036000830152611fcf81611f93565b9050919050565b7f4f766572206465706f73697420616d6f756e7400000000000000000000000000600082015250565b600061200c601383611c34565b915061201782611fd6565b602082019050919050565b6000602082019050818103600083015261203b81611fff565b9050919050565b60006040820190506120576000830185611794565b612064602083018461181e565b9392505050565b612074816118c4565b811461207f57600080fd5b50565b6000815190506120918161206b565b92915050565b6000602082840312156120ad576120ac611848565b5b60006120bb84828501612082565b91505092915050565b7f7472616e7366657220746f207061796f7574206661696c656400000000000000600082015250565b60006120fa601983611c34565b9150612105826120c4565b602082019050919050565b60006020820190508181036000830152612129816120ed565b9050919050565b7f7061796d656e7449643d30000000000000000000000000000000000000000000600082015250565b6000612166600b83611c34565b915061217182612130565b602082019050919050565b6000602082019050818103600083015261219581612159565b9050919050565b7f726563697069656e743d30000000000000000000000000000000000000000000600082015250565b60006121d2600b83611c34565b91506121dd8261219c565b602082019050919050565b60006020820190508181036000830152612201816121c5565b9050919050565b7f7472616e73666572206661696c65640000000000000000000000000000000000600082015250565b600061223e600f83611c34565b915061224982612208565b602082019050919050565b6000602082019050818103600083015261226d81612231565b9050919050565b60008151905061228381611b39565b92915050565b60006020828403121561229f5761229e611848565b5b60006122ad84828501612274565b91505092915050565b7f496e636f7272656374207761727020746f6c6c00000000000000000000000000600082015250565b60006122ec601383611c34565b91506122f7826122b6565b602082019050919050565b6000602082019050818103600083015261231b816122df565b9050919050565b7f2164657374206272696467696e673d3000000000000000000000000000000000600082015250565b6000612358601083611c34565b915061236382612322565b602082019050919050565b600060208201905081810360008301526123878161234b565b9050919050565b7f21747275737465643d3000000000000000000000000000000000000000000000600082015250565b60006123c4600a83611c34565b91506123cf8261238e565b602082019050919050565b600060208201905081810360008301526123f3816123b7565b9050919050565b7f616d6f756e743d30000000000000000000000000000000000000000000000000600082015250565b6000612430600883611c34565b915061243b826123fa565b602082019050919050565b6000602082019050818103600083015261245f81612423565b9050919050565b7f7061796d656e7449642075736564000000000000000000000000000000000000600082015250565b600061249c600e83611c34565b91506124a782612466565b602082019050919050565b600060208201905081810360008301526124cb8161248f565b9050919050565b60006060820190506124e76000830186611794565b6124f46020830185611794565b612501604083018461181e565b949350505050565b7f7472616e7366657246726f6d206661696c656400000000000000000000000000600082015250565b600061253f601383611c34565b915061254a82612509565b602082019050919050565b6000602082019050818103600083015261256e81612532565b9050919050565b7f4e487b7100000000000000000000000000000000000000000000000000000000600052601160045260246000fd5b60006125af82611814565b91506125ba83611814565b92508282019050808211156125d2576125d1612575565b5b92915050565b60006040820190506125ed600083018561181e565b6125fa602083018461181e565b9392505050565b7f4e487b7100000000000000000000000000000000000000000000000000000000600052604160045260246000fd5b600081519050919050565b600082825260208201905092915050565b6000819050602082019050919050565b61266581611852565b82525050565b6000612677838361265c565b60208301905092915050565b6000602082019050919050565b600061269b82612630565b6126a5818561263b565b93506126b08361264c565b8060005b838110156126e15781516126c8888261266b565b97506126d383612683565b9250506001810190506126b4565b5085935050505092915050565b600060608201905061270360008301866117ea565b61271060208301856118b5565b81810360408301526127228184612690565b9050949350505050565b7f4f776e61626c653a206e6577206f776e657220697320746865207a65726f206160008201527f6464726573730000000000000000000000000000000000000000000000000000602082015250565b6000612788602683611c34565b91506127938261272c565b604082019050919050565b600060208201905081810360008301526127b78161277b565b9050919050565b7f4f776e61626c653a2063616c6c6572206973206e6f7420746865206f776e6572600082015250565b60006127f4602083611c34565b91506127ff826127be565b602082019050919050565b60006020820190508181036000830152612823816127e7565b9050919050565b7f5061757361626c653a2070617573656400000000000000000000000000000000600082015250565b6000612860601083611c34565b915061286b8261282a565b602082019050919050565b6000602082019050818103600083015261288f81612853565b9050919050565b7f5265656e7472616e637947756172643a207265656e7472616e742063616c6c00600082015250565b60006128cc601f83611c34565b91506128d782612896565b602082019050919050565b600060208201905081810360008301526128fb816128bf565b9050919050565b7f5061757361626c653a206e6f7420706175736564000000000000000000000000600082015250565b6000612938601483611c34565b915061294382612902565b602082019050919050565b600060208201905081810360008301526129678161292b565b905091905056fea26469706673582212204d32e48afc39e396661ae9c434d419c59cb62a755393abcce1045aeec54d390a64736f6c63430008160033",
  "linkReferences": {},
  "deployedLinkReferences": {}
}